:020000040800F2
:1000000000000820FDCD0008A3A60008A9A600084E
:10001000AFA60008B5A60008BBA6000800000000B7
:100020000000000000000000000000003D7B000810
:10003000C1A6000800000000F97A0008297A00082B
:100040004DCE00084DCE00084DCE00084DCE000824
:100050004DCE00084DCE00084DCE00084DCE000814
:100060004DCE00084DCE00084DCE00084DCE000804
:10007000798C00084DCE0008598C00084DCE000840
:100080004DCE00084DCE00084DCE00084DCE0008E4
:100090004DCE00084DCE00084DCE00084DCE0008D4
:1000A0004DCE0008D1A600084DCE00084DCE000868
:1000B0004DCE0008E5A60008F3A600084DCE0008C6
:1000C0004DCE00084DCE00084DCE00084DCE0008A4
:1000D0004DCE00084DCE00084DCE0008458C0008DE
:1000E0004DCE00084DCE00084DCE00084DCE000884
:1000F0004DCE00084DCE00084DCE00084DCE000874
:100100004DCE00084DCE00084DCE00084DCE000863
:100110004DCE00084DCE00084DCE00084DCE000853
:100120004DCE00084DCE00084DCE00084DCE000843
:100130004DCE00084DCE00084DCE00084DCE000833
:100140004DCE00084DCE00084DCE00084DCE000823
:100150004DCE00084DCE00084DCE00084DCE000813
:100160004DCE00084DCE00084DCE00084DCE000803
:100170004DCE00084DCE00084DCE00080000000016
:100180004DCE00084DCE00084DCE00084DCE0008E3
:100190004DCE00084DCE00084DCE00084DCE0008D3
:1001A0004DCE00084DCE00084DCE00084DCE0008C3
:1001B0004DCE00084DCE00084DCE00084DCE0008B3
:1001C0004DCE00084DCE0008000000004DCE0008C6
:1001D0004DCE00084DCE00084DCE00084DCE000893
:1001E0004DCE00084DCE00084DCE00084DCE000883
:0801F0004DCE00084DCE0008C1
:1001F8000348044B834202D0034B03B118477047AE
:100208001C0100201C010020000000000548064BCE
:100218001B1AD90F01EBA301491002D0034B03B1FC
:10022800184770471C0100201C0100200000000036
:1002380010B5064C237843B9FFF7DAFF044B13B126
:100248000448AFF300800123237010BD2001002073
:1002580000000000B8D1000808B5054B1BB10549DE
:100268000548AFF30080BDE80840FFF7CFBF00BFE7
:100278000000000024010020B8D1000880B485B037
:1002880000AF78607B681B6803F06003FB60FB6865
:10029800002B04D17B681B6803F01003FB60FB682C
:1002A80018461437BD465DF8047B704780B483B0A8
:1002B80000AF78607B685B6A18460C37BD465DF80E
:1002C800047B704780B483B000AF78607B681B6B99
:1002D80018460C37BD465DF8047B704780B483B080
:1002E80000AF786039607B681A6A3B681A437B689C
:1002F8001A6200BF0C37BD465DF8047B704780B4B6
:1003080083B000AF786039607B681A6A3B68DB436A
:100318001A407B681A6200BF0C37BD465DF8047B43
:10032800704780B483B000AF78607B685B6C43F43F
:1003380000427B685A6400BF0C37BD465DF8047BF9
:10034800704780B483B000AF78607B68DB6843F0A7
:1003580001027B68DA6000BF0C37BD465DF8047B9C
:10036800704780B483B000AF78607B68DB6823F0A7
:1003780001027B68DA6000BF0C37BD465DF8047B7C
:10038800704780B483B000AF78607B68DB6803F0A7
:100398000103012B01D1012300E0002318460C378B
:1003A800BD465DF8047B704780B483B000AF7860C9
:1003B8007B68DB6843F002027B68DA6000BF0C37B9
:1003C800BD465DF8047B704780B483B000AF7860A9
:1003D8007B68DB6823F002027B68DA6000BF0C37B9
:1003E800BD465DF8047B704780B483B000AF786089
:1003F8007B68DB6803F00203022B01D1012300E0D4
:10040800002318460C37BD465DF8047B704780B45E
:1004180083B000AF78607B68DB6843F004027B68D8
:10042800DA6000BF0C37BD465DF8047B704780B4C6
:1004380083B000AF78607B68DB6823F004027B68D8
:10044800DA6000BF0C37BD465DF8047B704780B4A6
:1004580083B000AF78607B68DB6803F00403042B8B
:1004680001D1012300E0002318460C37BD465DF892
:10047800047B704780B483B000AF78607B68DB682A
:1004880043F008027B68DA6000BF0C37BD465DF8B0
:10049800047B704780B483B000AF78607B68DB680A
:1004A80023F008027B68DA6000BF0C37BD465DF8B0
:1004B800047B704780B483B000AF78607B68DB68EA
:1004C80003F00803082B01D1012300E0002318469C
:1004D8000C37BD465DF8047B704780B483B000AF2D
:1004E80078607B68DB6843F010027B68DA6000BFE5
:1004F8000C37BD465DF8047B704780B483B000AF0D
:1005080078607B68DB6823F010027B68DA6000BFE4
:100518000C37BD465DF8047B704780B483B000AFEC
:1005280078607B68DB6803F01003102B01D101238E
:1005380000E0002318460C37BD465DF8047B704781
:1005480080B483B000AF78607B68DB6843F020023A
:100558007B68DA6000BF0C37BD465DF8047B7047E6
:1005680080B483B000AF78607B68DB6823F020023A
:100578007B68DA6000BF0C37BD465DF8047B7047C6
:1005880080B483B000AF78607B68DB6803F0200339
:10059800202B01D1012300E0002318460C37BD466B
:1005A8005DF8047B704780B483B000AF78607B68E7
:1005B800DB6843F040027B68DA6000BF0C37BD4659
:1005C8005DF8047B704780B483B000AF78607B68C7
:1005D800DB6823F040027B68DA6000BF0C37BD4659
:1005E8005DF8047B704780B483B000AF78607B68A7
:1005F800DB6803F04003402B01D1012300E0002316
:1006080018460C37BD465DF8047B704780B483B04C
:1006180000AF78607B68DB6843F080027B68DA6053
:1006280000BF0C37BD465DF8047B704780B483B0CB
:1006380000AF78607B68DB6823F080027B68DA6053
:1006480000BF0C37BD465DF8047B704780B483B0AB
:1006580000AF78607B68DB6803F08003802B01D1F2
:10066800012300E0002318460C37BD465DF8047BE3
:10067800704780B582B000AF78600B467B807B887E
:1006880003F00103002B0CD07B681B681846FFF7AA
:10069800AAFF0346012B04D07B681B681846FFF7A6
:1006A80082FF7B8803F00203002B0CD07B681B6859
:1006B8001846FFF799FE0346012B04D07B681B6898
:1006C8001846FFF771FE7B8803F00403002B0CD05B
:1006D8007B681B681846FFF7BAFE0346012B04D057
:1006E8007B681B681846FFF792FE7B8803F00803B7
:1006F800002B0CD07B681B681846FFF7DBFE03460F
:10070800012B04D07B681B681846FFF7B3FE7B8873
:1007180003F01003002B0CD07B681B681846FFF70A
:10072800FCFE0346012B04D07B681B681846FFF7C4
:10073800D4FE7B8803F02003002B0CD07B681B6859
:100748001846FFF71EFE0346012B04D07B681B6882
:100758001846FFF7F6FD7B8803F04003002B0CD00A
:100768007B681B681846FFF771FF0346012B04D00E
:100778007B681B681846FFF749FF7B8803F08003F6
:10078800002B0CD07B681B681846FFF7F9FE034660
:10079800012B04D07B681B681846FFF7D1FE00BF09
:1007A8000837BD4680BD80B582B000AF78600B4683
:1007B8007B807B8803F00103002B0CD07B681B68CF
:1007C8001846FFF710FF0346012B04D17B681B680E
:1007D8001846FFF7F8FE7B8803F00203002B0CD0C5
:1007E8007B681B681846FFF7FFFD0346012B04D101
:1007F8007B681B681846FFF7E7FD7B8803F0040356
:10080800002B0CD07B681B681846FFF720FE0346B8
:10081800012B04D17B681B681846FFF708FE7B880C
:1008280003F00803002B0CD07B681B681846FFF701
:1008380041FE0346012B04D17B681B681846FFF76D
:1008480029FE7B8803F01003002B0CD07B681B6803
:100858001846FFF762FE0346012B04D17B681B682C
:100868001846FFF74AFE7B8803F02003002B0CD0C4
:100878007B681B681846FFF784FD0346012B04D0EC
:100888007B681B681846FFF76CFD7B8803F0400304
:10089800002B0CD07B681B681846FFF7D7FE034671
:1008A800012B04D17B681B681846FFF7BFFE7B88C5
:1008B80003F08003002B0CD07B681B681846FFF7F9
:1008C8005FFE0346012B04D17B681B681846FFF7BF
:1008D80047FE00BF0837BD4680BD000080B582B026
:1008E80000AF78600B46FB70FB78022B06D17B6863
:1008F8001B6801211846FFF7F1FC22E07B681B68A2
:10090800124A934204D07B681B68114A934218D15B
:10091800FB78032B06D17B681B6804211846FFF778
:10092800DDFC0EE0FB78042B0BD17B681B680121F2
:100938001846FFF7D3FC7B681B6804211846FFF7AD
:10094800CDFC00BF0837BD4680BD00BF0000014098
:100958000004014080B582B000AF78600B46FB70A0
:10096800FB78022B06D17B681B6801211846FFF72C
:10097800C6FC22E07B681B68124A934204D07B685D
:100988001B68114A934218D1FB78032B06D17B6868
:100998001B6804211846FFF7B2FC0EE0FB78042B15
:1009A8000BD17B681B6801211846FFF7A8FC7B6800
:1009B8001B6804211846FFF7A2FC00BF0837BD4694
:1009C80080BD00BF000001400004014080B582B036
:1009D80000AF78600B46FB70FB78022B06D17B6872
:1009E8001B6810211846FFF779FC22E07B681B681A
:1009F800124A934204D07B681B68114A934218D16B
:100A0800FB78032B06D17B681B6840211846FFF74B
:100A180065FC0EE0FB78042B0BD17B681B6810216A
:100A28001846FFF75BFC7B681B6840211846FFF7F8
:100A380055FC00BF0837BD4680BD00BF000001401F
:100A48000004014080B582B000AF78600B46FB70AF
:100A5800FB78022B06D17B681B6810211846FFF72C
:100A68004EFC22E07B681B68124A934204D07B68E4
:100A78001B68114A934218D1FB78032B06D17B6877
:100A88001B6840211846FFF73AFC0EE0FB78042B60
:100A98000BD17B681B6810211846FFF730FC7B6878
:100AA8001B6840211846FFF72AFC00BF0837BD46DF
:100AB80080BD00BF000001400004014080B584B043
:100AC80000AF78600023FB607B681B68214A934273
:100AD80001D1214BFB607B681A68FB681A60FB68D0
:100AE8001B681846FFF7CAFBB860BB68002B06D026
:100AF800BB68102B03D0FB6801221A7102E0FB6867
:100B080000221A71FB681B68144A934204D0FB68E0
:100B18001B68134A934204D1FB681B681846FFF709
:100B280000FCFB681B680D4A934204D0FB681B68F5
:100B38000B4A934208D17B681B681846FFF7C2FB33
:100B48000346DAB2FB685A71FB6818461037BD468F
:100B580080BD00BF000800403C01002000000140AB
:100B68000004014080B582B000AF78607B681B68E4
:100B78001846FFF79BFB034618460837BD4680BD5D
:100B880080B485B000AF786039600023FB7397F9B3
:100B98000F3018461437BD465DF8047B70470000D7
:100BA80080B584B000AF786039600023FB727B6841
:100BB800002B05D1364800F0ADFD4FF0FF3362E061
:100BC8003B68002B05D1334800F0A4FD4FF0FF33FC
:100BD80059E0314B93ED007BB8EE006BB4EE467BE9
:100BE800F1EE10FA06D13B68D3E900232A49C1E99E
:100BF800002305E0284BD3E900233968C1E9002325
:100C0800254B93ED007BBFEE006BB4EE467BF1EE17
:100C180010FA02D1214800F07DFD7B685B681B68F3
:100C28001F4A13607B685B685B681E4A13607B68B9
:100C38005B689B681C4A13607B685B68DB681B4ABF
:100C480013601B4B00221A6001F0C2F90023FB60FD
:100C58000023FB6007E0174AFB68174942F8231096
:100C6800FB680133FB60FB68012BF4D900F0F8FD49
:100C78000346FB7297F90B30002B02D10F4B012270
:100C88001A7097F90B3018461037BD4680BD00BF63
:100C9800D0D10008F4D100083800002020D2000884
:100CA800980200209C020020A0020020A40200203C
:100CB800A8020020C8010020412000089502002059
:100CC80080B586B000AF78600023FB7500233B61D8
:100CD8000023FB732A4B1B78DBB2002B0CBF0123CC
:100CE8000023DBB2BB73274B02221A707B68002BF0
:100CF8000BD1234B1B78DBB2002B06D1224B1B7880
:100D0800DBB2002B01D1012300E00023FB7316E0C6
:100D18000A2006F089FD3A6942F2107313443B61D8
:100D28007B68B3F1FF3F05D03A697B689A4201D9E5
:100D3800012300E00023FB73002000F0DFFD104BCF
:100D48001B78DBB2002B07D10F4B1B78DBB2002BD3
:100D580002D1FB7B002BDBD00A4B03221A70FB7BF2
:100D6800002B01D09C23FB75BB7B002B01D001F02D
:100D78005DFA97F9173018461837BD4680BD00BF91
:100D880093020020950200209402002080B586B0CE
:100D980000AF034687ED000BFB810023FB750123A1
:100DA800BB7597ED007BB5EEC07BF1EE10FA05D56B
:100DB8002E4800F0AFFC4FF0FF3353E0FB89FF2BC8
:100DC80008D9FB89FF221946294800F0A3FC4FF0F7
:100DD800FF3347E0274B1B78DBB2032B04D0254BAE
:100DE8001B78DBB2012B02D1224B04221A70FB893B
:100DF800012B15D8FB89204A52F82330002B0FD03D
:100E080001F0D8FD03467B757B7D022B08D1FB8959
:100E1800194A52F82330FA89104698470346BB7599
:100E2800FB897B82FB89184697ED000B00F090FC4C
:100E3800BB7D002B06D07B8A184601F093FD034644
:100E4800FB7503E07B8A184601F0EFFD97F9173030
:100E5800002B05D097F917301946084800F05AFCBE
:100E680097F9173018461837BD4680BD8CD2000850
:100E7800D0D2000895020020C801002010D3000835
:100E880080B582B000AF0023FB71002000F036FD72
:100E98000346FB7197F9073018460837BD4680BDF1
:100EA80080B582B000AF0023FB710B4B06221A708D
:100EB80000F0C2FD0346FB710822002107480CF030
:100EC80037F901F039F9044B00221A7097F9073005
:100ED80018460837BD4680BD95020020C80100208D
:100EE80080B400AF034B1B78DBB21846BD465DF8F3
:100EF800047B70479402002080B400AF034B1B783A
:100F0800DBB21846BD465DF8047B7047AC02002092
:100F180080B483B000AF78607B681B6843F001023F
:100F28007B681A6000BF0C37BD465DF8047B7047CC
:100F380080B483B000AF78607B681B6823F001023F
:100F48007B681A6000BF0C37BD465DF8047B7047AC
:100F580080B483B000AF786039607B681B6823F089
:100F680004023B681A437B681A6000BF0C37BD4611
:100F78005DF8047B704780B483B000AF78607B680D
:100F88001B6803F0040318460C37BD465DF8047B64
:100F9800704780B483B000AF78607B681B6803F04B
:100FA800100318460C37BD465DF8047B704780B4C3
:100FB80083B000AF786039607B683A681A6300BF15
:100FC8000C37BD465DF8047B704780B483B000AF32
:100FD80078607B685B6943F001027B685A6100BFF7
:100FE8000C37BD465DF8047B704780B483B000AF12
:100FF800786039607B683A689A6100BF0C37BD46F3
:101008005DF8047B704780B483B000AF78603960C6
:101018003B681A047B689A6100BF0C37BD465DF8CF
:10102800047B704780B485B000AF78607B681B682C
:101038009A680A4B1340FB60FB68062B03D0FB68D9
:10104800B3F5803F01D1012300E00023DBB218464D
:101058001437BD465DF8047B704700BF07000100E8
:1010680080B584B000AF78600B46FB707B681B6866
:101078001846FFF780FFF860FB78002B0FD07B68DD
:101088001B68234A934204D07B681B68214A934219
:1010980005D17B681B6800211846FFF788FFFB68AD
:1010A800042B11D07B681B6804211846FFF750FFFA
:1010B8007B681B681846FFF788FF7B681B68F96820
:1010C8001846FFF745FF04E07B681B681846FFF7E2
:1010D8007CFF7B681B681846FFF71AFFFB78002B1C
:1010E80011D07B681B680A4A934204D07B681B684E
:1010F800084A934207D17B681A687B685B7919466E
:101108001046FFF754FF00BF1037BD4680BD00BF33
:10111800000001400004014080B582B000AF786053
:101128007B681B681846FFF734FF0346002B14BF83
:1011380001230023DBB218460837BD4680BD80B5C1
:1011480082B000AF78607B681B681846FFF7F0FE36
:1011580000BF0837BD4680BD80B5A6B000AF786037
:101168007B6801225A60204BBB6000233B7300233D
:101178007B7307F108031846FFF7A0FC02467B685B
:10118800DA607B68DB6800211846FFF772FA0223F1
:1011980087F897307B68DB6897F8972011461846E0
:1011A800FFF79CFB7B68DB6897F897201146184689
:1011B800FFF70CFC7B68DB681846FFF733FF034634
:1011C80087F8963097F89630002B05D17B68DB6856
:1011D80000211846FFF744FF7B6801221A7200BFFE
:1011E8009837BD4680BD00BF0008004080B584B078
:1011F80000AF594B1B6A07EE903AB8EEE76B574BB6
:1012080093ED087BB4EEC76BF1EE10FA07D5524B9D
:101218001B6A002B03DB514BD3E9042303E04FF097
:1012280000024FF00003C7E902234B4B1B6A07EE8D
:10123800903AB8EEE76B494B93ED067BB7EE005B4F
:1012480037EE457BB4EEC76BF1EE10FA03DB424B89
:1012580000221A6204E0404B1B6A01333E4A1362C3
:101268003F4B7B6097ED027BB5EE407BF1EE10FAC9
:1012780014BF01230023DBB23B603B681946786842
:10128800FFF7B3FE3B6803F00103002B0CBF0123FB
:101298000023DBB219467868FFF7B5FE2E4BDB69F1
:1012A8001846FFF75FFC03462E4A53612A4BDB6959
:1012B8001846FFF731FF03461A462A4B1A76294B80
:1012C8001B7E002B0DD0274B5B6907EE903AB8EEDA
:1012D800676B224B93ED007B36EE477B87ED027BF5
:1012E80007E0204B5B6907EE903AB8EE677B87ED25
:1012F800027B1A4B93ED026B97ED027B26EE077B80
:10130800184B83ED027B174B93ED025B134B93ED68
:101318000C6B85EE067B134B83ED007B0E4BDB6875
:101328001846FFF71FFC03460E4A13610E4B9A6AD4
:1013380001329A629B6A07EE903AB8EE676B0A4BE5
:1013480093ED0C7B084B26EE077B83ED087B00BFF3
:101358001037BD4680BD00BFF0010020000000200E
:1013680000040240D0010020180200200000000004
:1013780080B500AF2C494FF000022C4BC1E90E2379
:10138800294927A3D3E90023C1E90C23264B284A7E
:101398009A60254B274ADA60234B274A1A61224B69
:1013A800264A5A61204B264A5A60254B254A1A601C
:1013B800244B254A1A60234B234A5A60214B224A60
:1013C8009A60204B204ADA601E4B1F4A1A611D4B57
:1013D8001D4A5A61144A144B5B6818329A60124AC3
:1013E800114B5B6808325A600F4A0F4B5B6820321A
:1013F800DA60164B00225A61144B00221A74144802
:10140800FFF7AAFE114B00225A60104B00221A70F7
:101418000E48FFF7A1FE00BF80BD00BFAFF30080FC
:10142800FCA9F1D24D62503F1802002000004E4046
:101438009CF428080987E3A0C0617073B39CDAD1D3
:1014480060020020740200205CFA0008F00100200D
:101458000002002080B582B000AF2C4B1B7C002B13
:1014680025D12A4B01221A74284B5B69012B1ED106
:10147800264B1B7E002B1AD0244BDB691846FFF73E
:101488005EFE224BDB6900211846FFF78CF9022328
:10149800FB711E4BDB69FA7911461846FFF75AFAB9
:1014A8001A4BDB69FA7911461846FFF7CBFA174B46
:1014B8001B78002B25D1154B01221A70134B5B6842
:1014C800012B1ED1114B1B7A002B1AD00F4BDB6856
:1014D8001846FFF734FE0D4BDB6800211846FFF76E
:1014E80062F90223FB71094BDB68FA791146184649
:1014F800FFF730FA054BDB68FA7911461846FFF713
:10150800A1FA00BF0837BD4680BD00BFF00100202A
:1015180080B582B000AF4FF000024FF00003C7E97A
:101528000023164B1B785A1CD1B2144A1170002B99
:1015380009D0134B01221A60104B1B78013BDAB219
:101548000E4B1A7016E062B600BF0E4B1B68D3E94B
:101558000823C7E90023FFF749FE97ED000B002099
:10156800FFF714FC72B600BF044B1B78013BDAB2DC
:10157800024B1A700837BD4680BD00BF900200209C
:101588008C02002058FA000880B586B000AF786059
:1015980039605A4B7B615A4B3B610023FB73594BB3
:1015A80000221A70584B00221A7001DF0AF09CFEC4
:1015B80008F06AFC06F050F908F026FF08F0FCFE77
:1015C80008F0F6FD08F0CAFE08F0BCFC08F054FD6F
:1015D8004E4B1B6800221A6000210020FFF7D0FA4A
:1015E8000346FB7397F90F30002B02D097F90F30A1
:1015F80080E0FFF7BDFE72B600BF62B600BF434B86
:101608001B685A68414B1B68383319461046FFF768
:10161800C7FA0346FB7397F90F30002B0DD14FF033
:10162800FF30FFF74DFBFFF75BFC0346002B04D0B0
:10163800364B1B68012283F8402072B600BF97ED35
:10164800050A06F0FDF9FFF757FC0346002B0CD1FD
:10165800FFF746FC0346002B07D12C4B1B6893F879
:101668004030002B01D1012300E00023DAB2264BE1
:101678001A7062B600BF62B600BF2FE0FFF700FC29
:101688000346FB73FFF738FC0346002B0AD1FFF72C
:1016980027FC0346002B05D11C4B1B6893F84030F0
:1016A800002B01D0012300E00023DAB2154B1A7099
:1016B800144B1B78DBB2002B0CBF01230023DBB2D9
:1016C8001A46114B1A700F4B1B78DBB2002B05D052
:1016D8000F4B1B680E4A23F0010313600A4B1B785B
:1016E800DBB2002BCAD1FFF7B5FEFFF7D9FB72B604
:1016F80000BF002318461837BD4680BD6F12833AD5
:101708000000C042910200209202002058FA00080E
:1017180010E000E00FB480B400AF00BFBD465DF834
:10172800047B04B0704780B485B000AFF860B9603E
:101738007A60FB68BA681A60FB6804337A681A60D2
:1017480000BF1437BD465DF8047B704700000000F9
:1017580080B58AB000AF87ED020B0346FB80FB889B
:10176800002B60D197ED027B9FED316B27EE067B56
:1017780087ED067B9FED301B97ED060B0BF064FBA6
:10178800B0EE407BFCEEC77B17EE903A7B610023FE
:101798007B6297ED067B9FED2A6BB4EEC67BF1EE7C
:1017A80010FA0ADD97ED066B9FED255B86EE057B4B
:1017B800FCEEC77B17EE903A7B627A6A7969244817
:1017C800FFF7B1FF234B93ED007BBFEE006BB4EE48
:1017D800467BF1EE10FA21D01E4B93ED007BB8EE5C
:1017E800006BB4EE467BF1EE10FA17D0194B93ED6F
:1017F800006B97ED027B36EE476B97ED027B9FED12
:10180800125B27EE057BB4EEC76BF1EE10FA4CBF06
:1018180001230023DBB21A460F4B1A700F49D7E990
:101828000223C1E9002300BF2837BD4680BD00BFA1
:101838000000000000408F40000000000000F04160
:101848000000E0FFFFFFEF41000000000000B03C97
:10185800B802002038000020AC020020C00200209E
:1018680080B584B000AF0023BB6000237B600023F9
:10187800FB731F494FF000024FF00003C1E900233A
:101888003A1D07F108031146184605F09FFFBB688B
:101898007A681146184604F0BFF80346FB7397F9B7
:1018A8000F30002B05D01348FFF734FF97F90F309E
:1018B8001AE03A1D07F108031146184605F09DFF86
:1018C800BB687A681146184600F050FF0346FB7360
:1018D80097F90F30002B05D097F90F3019460648B5
:1018E800FFF718FF97F90F3018461037BD4680BD2F
:1018F800B00200208CD40008B4D4000880B584B0AD
:1019080000AF0346FB710023FB730023BB73002069
:1019180005F08AFF00237B7304F04CFA0346FB733F
:1019280097F90F30002B0DD097F90F3013F1020FF4
:1019380008D097F90F3019463C48FFF7EBFE012312
:10194800BB730BE07B7B002B04D197F90F3013F1AD
:10195800020F01D0012300E000237B73BB7B002B27
:1019680021D100F035FF0346FB7397F90F30002BA8
:101978000DD097F90F3013F1020F08D097F90F30F7
:1019880019462B48FFF7C6FE0123BB730BE07B7B90
:10199800002B04D197F90F3013F1020F01D0012366
:1019A80000E000237B73BB7B002B21D104F08CF972
:1019B8000346FB7397F90F30002B0DD097F90F30C2
:1019C80013F1020F08D097F90F3019461948FFF79D
:1019D800A1FE0123BB730BE07B7B002B04D197F99D
:1019E8000F3013F1020F01D0012300E000237B73B5
:1019F800FB79002B0DD0002005F016FFBB7B002BD8
:101A080002D17B7B002B01D1012300E00023BB73B3
:101A180001E00123BB73BB7B002B3FF47BAF97F93D
:101A28000F3018461037BD4680BD00BFDCD4000813
:101A380014D5000844D5000880B582B000AF002353
:101A4800BB70394B1B78DBB2002B02D0002000F0B2
:101A5800DDFF00F0AFFF0346FB7000237B600EE064
:101A68000A2005F0E1FE7A6842F2107313447B60A5
:101A78000120FFF743FF00F09DFF0346FB707B68E2
:101A88002A4A934202D8FB78002BE9D100F09EFF46
:101A98000346BB7097F90230002B05D097F9023046
:101AA80019462348FFF736FE04F0FEFA0346BB70DA
:101AB80097F90230002B05D097F9023019461D48D6
:101AC800FFF728FE1C4B00221A701C4B00221A70CC
:101AD8001B4B00221A601B4B00221A601A4B002273
:101AE8001A601A4B00221A60194B00221A60194911
:101AF8004FF000024FF04043C1E900230A4B002297
:101B08001A700822002114480BF012FB13494FF0F9
:101B180000024FF00003C1E9002397F9023018468C
:101B28000837BD4680BD00BFAC020020FF2C310144
:101B38007CD5000898D50008930200209402002064
:101B4800980200209C020020A0020020A40200208D
:101B5800A802002038000020B8020020C00200209F
:101B680080B487B000AF624B1B687B617B69002B38
:101B780000F0B8805F4B1B78DBB2002B04D15C4BC4
:101B88001B68002B00F0AE805B4B1B78DBB2022B8E
:101B980040F0A880594B1B78002B40F0A3807B694C
:101BA800D3E90023C7E90223554B1B78002B00F02B
:101BB8008A80544B1B78DBB2002B04D0514B1B7826
:101BC800DBB2022B01D1012300E00023FB714D4B56
:101BD8001B78DBB2012B04D04A4B1B78DBB2022BFB
:101BE80001D1012300E00023BB71FB79002B33D026
:101BF800454B93ED007B97ED026BB4EEC76BF1EEAE
:101C080010FA0ADB414B93ED006B3F4B93ED007BE1
:101C1800B4EEC76BF1EE10FA14D43B4B93ED007B96
:101C280097ED026BB4EEC76BF1EE10FA14DD374B8B
:101C380093ED006B344B93ED007BB4EE476BF1EE04
:101C480010FA09D1324B1B68002B02D1314B01220B
:101C58001A702A4B01221A70BB79002B33D02A4BF9
:101C680093ED007B97ED026BB4EEC76BF1EE10FAC3
:101C78000AD5264B93ED006B234B93ED007BB4EE16
:101C8800C76BF1EE10FA14DA1F4B93ED007B97ED5A
:101C9800026BB4EE476BF1EE10FA14D11B4B93EDC7
:101CA800006B194B93ED007BB4EEC76BF1EE10FAA5
:101CB80009DD174B1B68002B02D1164B01221A7045
:101CC8000E4B01221A700D4B1B78002B0CBF012301
:101CD8000023DBB21A460A4B1A700C49D7E90223D3
:101CE800C1E9002300BF1C37BD465DF8047B70477F
:101CF800CC020020D0020020EC020020FB020020D1
:101D0800F8020020E8020020D8020020F00200209B
:101D1800E4020020FA02002080B582B000AF002360
:101D2800FB719E4B1B78DBB2002B18D19C4B002219
:101D38001A709C4B00221A709B4B1B78DBB2002B4D
:101D48002DD0964B02221A70974B00221A70974B8F
:101D58001B78DBB2002B22D10123FB711FE0924BD1
:101D680000221A708E4B1B78DBB2002B09D0904BE7
:101D780000221A70894B00221A70894B00221A70AF
:101D88000DE08A4B1B78DBB2002B02D10123FB71DB
:101D980005E0844B1B78FB71824B00221A707F4B45
:101DA8001B78DBB2042B00F2D78001A252F823F093
:101DB800CD1D0008071F0008E71D0008BB1E00080E
:101DC800451E0008784B1B78DBB2002B00F0D8804A
:101DD800724B02221A70744B00221A70D0E0FB7901
:101DE800002B00F0CF80734B1B68002B0DDD6F4B71
:101DF8001B78DBB2012B08D16E4B1B681A466E4B61
:101E08001A60664B03221A70BCE06C4B1B68002BEF
:101E18000AD0674B01221A70684B1B68664A136028
:101E28005E4B04221A70ADE06548FFF773FC604B07
:101E380000221A70594B00221A70A3E05E4B1B68EF
:101E4800002B04D05C4B1B68013B5B4A13605A4B68
:101E58001B68002B40F098805A4B1B78DBB2012B93
:101E680006D1534B00221A704C4B00221A708BE09B
:101E7800554B1B68002B0AD04D4B00221A70524B51
:101E88001B684D4A1360454B01221A707CE0FB79B0
:101E9800002B07D0494B1B68474A13603F4B04226D
:101EA8001A7071E0424B00221A703C4B02221A70E1
:101EB8006AE0414B1B68002B04D03F4B1B68013B79
:101EC8003D4A13603C4B1B68002B5FD13B4B1B68A2
:101ED800002B0AD0364B01221A70384B1B68364A41
:101EE80013602E4B04221A7050E03548FFF712FC9D
:101EF8002F4B00221A70294B00221A7046E02E4BF5
:101F08001B68002B04D02C4B1B68013B2A4A13602A
:101F1800294B1B68002B3BD1FB79002B18D0274B92
:101F28001B68002B0AD0224B01221A70234B1B6816
:101F3800214A1360194B04221A7029E02048FFF740
:101F4800E9FB1B4B00221A70144B00221A701FE089
:101F5800124B02221A701BE0104B1B78DBB2194699
:101F68001A48FFF7D7FB124B00221A700D4B0022BC
:101F78001A700B4B00221A70084B00221A7008E0E6
:101F880000BF06E000BF04E000BF02E000BF00E0C1
:101F980000BF00BF0837BD4680BD00BFEC0200206F
:101FA800E9020020FB02002044000020EA02002091
:101FB800FA020020E4020020FC0200204000002079
:101FC800BCD50008EB020020E0020020E4D50008A0
:101FD80080B400AF10494FF000024FF00003C1E990
:101FE80000230E4B00221A700D4B1B78DAB20D4BF2
:101FF8001A700D4B00221A700C4B00221A700C4BF1
:1020080000221A600B4B00221A7000231846BD46A6
:102018005DF8047B704700BFF0020020F802002042
:10202800EA020020F9020020FA020020FB02002048
:10203800FC020020EC02002080B584B000AF03460B
:10204800FB80FB88002B3FD1314B1B78DAB2314B38
:102058001B789A4214BF01230023DBB2FB732C4B7D
:102068001B78DAB22B4B1A70FB7B002B0BD02A4B58
:1020780000221A70294B00221A70294B00221A607C
:10208800284B00221A70224B1B78DBB2012B1BD184
:10209800244B1B78DBB2002B04D1234B1B78DBB21B
:1020A800002B08D11F4B1B78DBB2012B0CD11C4B2A
:1020B8001B68012B08D11A4B00221A601A4B002208
:1020C8001A70184B02221A70114B1B78DBB2012BC5
:1020D80007D1164B1B889BB2FA889A4201D1FFF7A9
:1020E8003FFDFB88002B05D1FFF716FE104B0022A1
:1020F8001A7006E00E4B1B78002B02D00D4B1B7894
:1021080001E0054B1B7818461037BD4680BD00BF5F
:10211800EA020020F9020020FA020020FB02002057
:10212800FC020020EC02002044000020C80200202D
:10213800010300200003002080B400AF26494FF0BF
:1021480000024FF00003C1E90023244B00221A705B
:10215800234B00221A70234B00221A70224B0022B4
:102168001A80224B00221A70214B00221A70214B30
:1021780000221A60204B00221A70204B00221A708D
:102188001F4B00221A601F4B00221A701E494FF085
:1021980000024FF00003C1E900231C4B4FF47A7290
:1021A8001A601B4B00221A601A4B00221A601A4B45
:1021B80000221A70194B01221A70194B00221A704A
:1021C800184B00221A70184B00221A700023184668
:1021D800BD465DF8047B7047F0020020F80200203D
:1021E800EC020020F9020020C8020020FA020020B8
:1021F800FB020020FC020020000300200103002055
:10220800CC020020D0020020D8020020400000208C
:10221800E0020020E4020020E80200204400002040
:10222800E9020020EA020020EB02002080B400AF9F
:10223800194B1B78DBB2002B29D1184B1B78DBB26A
:10224800002B0BD0164B1B78DBB2002B06D1154B9D
:1022580001221A70144B01221A7018E0104B1B78D7
:10226800DBB21A460D4B1B78DBB2002B0CBF0123E7
:102278000023DBB21340002B06D00A4B00221A7051
:10228800094B01221A7002E0074B00221A7000BFA6
:10229800BD465DF8047B7047EA0200204400002038
:1022A800E9020020000300200103002080B586B069
:1022B80000AFF860B9607A603B600023FB7503F0FB
:1022C800E7FE3861FB681B68184604F0F7F8002140
:1022D800386803F055FE0246BB681A6003F040FEFA
:1022E80002467B681A60BB681B68002B0FD0BB686E
:1022F8001B681946386904F0E7FB0246FB681A6058
:10230800FB681B68002B04D1F623FB7501E0F8235A
:10231800FB7597F9173018461837BD4680BD000081
:1023280080B584B000AFF860B9607A60FA68BB68BD
:1023380013441B7819460848FFF7ECF9FB68002B93
:1023480002D0F86804F0BAF87B6800221A6000230B
:1023580018461037BD4680BD08D6000880B584B041
:1023680000AFF860B9607A60FA68BB6813441B78FC
:1023780019460648FFF7CEF97B6802221A604FF02B
:10238800FF3318461037BD4680BD00BF64D600082D
:1023980080B485B000AF03460A46FB711346BB7193
:1023A8000523FB73FB79F02B02D90023FB7322E092
:1023B800FB79E32B05D9FB79F02B02D80123FB73BA
:1023C80019E0FB79D22B02D9FB79E22B08D9FB79EA
:1023D800C02B08D1BB79002B05D0BB79022B02D8C2
:1023E8000223FB7307E0FB79C72B04D9FB79D22BB7
:1023F80001D80323FB73FB7B18461437BD465DF8F1
:10240800047B704780B58CB000AFF860B9607A6023
:102418003B60FB68BB62BB6A1B7887F827300023E8
:1024280087F82F3097F82730C02B06D1BB68012BCF
:1024380003D9BB6A5B7887F82F30364B1B78002BA3
:102448003ED097F82F2097F8273011461846FFF707
:102458009FFF0346FB76002387F82E30FB7E052B73
:1024680023D0FB7E2C4A52F823307B6100233B614A
:102478007B69002B19D097F827207B69104698476D
:1024880038613B69002B14BF01230023DBB287F8B6
:102498002E3097F82E30002B07D03B695A687B689E
:1024A8001A603B699A683B681A6097F82E30002BCF
:1024B8002CD17B68194A1A603B68194A1A6025E0D2
:1024C80097F82730FF2B1BD1134B1B683B627B68A7
:1024D80000221A603B6800221A603B6A002B15D064
:1024E8003B6AFF209847F861FB69002B0ED0FB6917
:1024F8005A687B681A60FB699A683B681A6005E04D
:102508007B68084A1A603B6800221A6000BF3037AF
:10251800BD4680BD03030020080300206523000892
:10252800F52500082923000880B483B000AF0346CE
:10253800FB71044AFB79137000BF0C37BD465DF888
:10254800047B70470303002080B400AF034B1B7863
:102558001846BD465DF8047B704700BF04030020A1
:1025680080B483B000AF0346FB71064B1A78FB7941
:102578001343DAB2034B1A7000BF0C37BD465DF83F
:10258800047B70470403002080B483B000AF034687
:10259800FB7197F90730DB435AB2074B1B785BB2E4
:1025A80013405BB2DAB2044B1A7000BF0C37BD4659
:1025B8005DF8047B704700BF0403002080B400AFBF
:1025C800034B1B781846BD465DF8047B704700BF77
:1025D8000503002080B400AF034B1B881846BD4696
:1025E8005DF8047B704700BF0603002080B586B005
:1025F80000AF0346B9607A60FB7397F90F30002B80
:1026080005D1BB683B613B69FF221A7070E0BB686B
:102618007B617B69FE221A7097F90F300F330E2BFE
:102628005CD801A252F823F0DD260008D526000860
:10263800CD260008C5260008BD260008AD260008DE
:10264800B5260008A52600089D260008952600083E
:102658008D260008752600086D2600087D260008CE
:10266800852600087B6930225A7041E07B6929225F
:102678005A703DE07B6922225A7039E07B6920223A
:102688005A7035E07B6900225A7031E07B69232259
:102698005A702DE07B6921225A7029E07B6911224A
:1026A8005A7025E07B6927225A7021E07B692A222B
:1026B8005A701DE07B6910225A7019E07B69242248
:1026C8005A7015E07B6928225A7011E07B6926222E
:1026D8005A700DE07B6931225A7009E097F90F3082
:1026E80019460548FFF716F87B6920225A70FFE75C
:1026F80000BF1837BD4680BD94D6000880B487B0A7
:1027080000AF0346B9607A60FB7300237B61BB6846
:10271800002B23D000233B6100233B6117E03A697B
:1027280013465B0013449B001A46BB6813441B788E
:10273800FA7B9A4208D13A6913465B0013449B001E
:102748001A46BB6813447B613B6901333B613A69B4
:102758007B689A4202D27B69002BE0D07B691846DD
:102768001C37BD465DF8047B7047000080B582B019
:1027780000AF78603960134B1B78002B05D01248E6
:10278800FEF7C8FF6FF00B0318E000F07BFC00F0C9
:1027980085FC03460D4A136002F042FA02F05CFA27
:1027A80003460A4A936003F035F803F03DF8034600
:1027B800064A5360034B01221A7000231846083753
:1027C800BD4680BD02030020D8D6000808030020BB
:1027D80080B58CB002AF002387F82730002387F834
:1027E80026300023FB610023BB6100237B610023AB
:1027F8003B610023FB6000233B620023BB60002396
:102808007B60554B1B78002B05D15448FEF782FF9F
:102818006FF008039BE007F1140007F1180207F1B5
:102828001C0107F1100300930346002003F002FB8C
:10283800034687F8273097F92730002B09D097F9F6
:10284800273013F1040F04D097F9273013F1050F3F
:1028580071D1FB69002B05D07A693B691A44BB69C1
:102868009A4203D9F82387F8273067E0FA697B6929
:1028780013443B6239693B1D07F10802386AFFF7C8
:10288800C1FDBB68002B09D13B6A1B781946344847
:10289800FEF740FFF42387F827304FE0BB68F8695C
:1028A800796907F10C029847034687F826307B6858
:1028B800002B3DD0FB68002B3AD0002387F8273047
:1028C8003A69FB689A420BD2FB6807F1140207F1D8
:1028D800180107F11C00FFF7E9FC034687F82730C9
:1028E8003B691A460021386A0AF022FC97F927301A
:1028F800002B1DD1FA697B6913443B627B68FA6837
:1029080097F92600396A9847F969B8697B69FA68BE
:102918000192009303460A464FF6FF71012003F027
:1029280031F9034687F8273097F92730002B04D16F
:1029380097F927300BE000BF00E000BFFB69002BD0
:1029480003D0FB69184603F0B9FD97F927301846FC
:102958002837BD4680BD00BF0203002008D7000805
:1029680030D7000880B584B000AF0346FB80002351
:10297800FB730023BB600D4B1B78002B05D10C4863
:10298800FEF7C8FE6FF008030CE004F0B7FFB8606C
:10299800FB880022B968184602F05CFB0346FB730B
:1029A80097F90F3018461037BD4680BD0203002046
:1029B80060D7000880B400AF034B1B781846BD46AB
:1029C8005DF8047B704700BF0303002080B500AFAB
:1029D8000B4B1B78002B02D10A48FEF79BFE02F036
:1029E8003FFF02F0E1FD00F075FB102200210648D0
:1029F8000AF09EFB024B00221A700023184680BD85
:102A08000203002058D800080803002080B584B0CD
:102A180000AF7860786802F0A1FB0346FB7397F972
:102A28000F3018461037BD4680BD80B584B000AF62
:102A38000346FB800123FB73FA7BFB8800211846C1
:102A480002F008FB0346BB7397F90E30184610379F
:102A5800BD4680BD80B584B000AF0346FB7101233D
:102A6800FB6003F0CCFAB860FA79B968FB68B1FB8F
:102A7800F3F39A4234BF01230023DBB21846103720
:102A8800BD4680BD80B584B000AF78600B46FB7052
:102A980000F02AFBF860F9680648FEF73BFE064B93
:102AA8001B781A46F96878680AF074FB00BF10377B
:102AB800BD4680BD80D800082003002080B588B0BE
:102AC80000AFF860B9607A600023FB77FA68BB68EA
:102AD8001344BB61BB697B610023FB7402F096FC65
:102AE8000346FB74FB7C002B08D11A48FEF712FE44
:102AF8007B6802221A606FF00A0327E07B695B7823
:102B0800002B03D07B695B78012B01D1012300E006
:102B18000023FB74FB7C002B0BD17B695B78194687
:102B28000D48FEF7F7FD7B6802221A606FF001037B
:102B38000CE00A48FEF7EEFD0120FFF7F5FC002344
:102B4800FB777B6808221A6097F91F3018462037F0
:102B5800BD4680BD98D80008E4D8000808D9000808
:102B680080B586B000AF0346B9607A60FB7397F909
:102B78000F30002B47D1BB687B61082200217869A0
:102B88000AF0D6FA7B69FF221A7005227B695A700F
:102B980000227B699A7003F032FA0346DAB27B6945
:102BA800DA7003F025FA03469AB27B699A807B694A
:102BB80001229A717B690122DA717B695B78194677
:102BC8001648FEF7A7FD7B699B7819461448FEF75F
:102BD800A1FD7B69DB7819461248FEF79BFD7B69EE
:102BE8009B889BB219461048FEF794FD7B699B7938
:102BF80019460E48FEF78EFD7B69DB7919460C48AD
:102C0800FEF788FD06E097F90F307A68B96818462C
:102C1800FFF7ECFC00BF1837BD4680BD30D900086F
:102C28004CD9000868D9000884D90008A0D9000840
:102C3800BCD9000880B586B000AFF860B9607A608A
:102C48000123FB7502F0E2FB0346FB75FB7D002BBD
:102C580008D10B48FEF75EFD7B6802221A606FF010
:102C68000A0309E00748FEF755FD0020FFF75CFC62
:102C78007B6801221A60002318461837BD4680BDBC
:102C8800D8D9000828DA000880B584B000AFF86009
:102C9800B9607A600548FEF73DFD7B6806221A6038
:102CA800002318461037BD4680BD00BF58DA00081B
:102CB80080B586B000AF0346B9607A60FB73BB6825
:102CC8007B610622002178690AF032FA7B69FF22CB
:102CD8001A70FFF739FC03461A467B695A70FFF7EA
:102CE8006DFC03461A467B699A70FFF773FC03462E
:102CF8001A467B699A807B695B7819460948FEF712
:102D080009FD7B699B7819460748FEF703FD7B6937
:102D18009B889BB219460548FEF7FCFC00BF183794
:102D2800BD4680BD64DA000888DA0008ACDA00081D
:102D380080B586B000AFF860B9607A600023FB7593
:102D48000B48FEF7E7FC02F04BFB0346FB75FB7DE7
:102D5800002B03D003F07CF902F051FB7B680222C0
:102D68001A606FF0040318461837BD4680BD00BFCF
:102D7800D0DA000880B588B000AFF860B9607A6032
:102D88000023FB77FA68BB681344BB61BB697B61AE
:102D98000023FB747B695A687B69DB781946104607
:102DA80000F0AEF90346FB74FB7C002B08D10D48FC
:102DB800FEF7B0FC7B6802221A606FF00B030CE090
:102DC8007B6959687B69DB781A460748FEF7A2FCDD
:102DD8007B6801221A6097F91F3018462037BD46D4
:102DE80080BD00BFD8DA0008F4DA000880B58AB0E0
:102DF80000AFF860B9607A60002387F82730FA6876
:102E0800BB6813443B623B6AFB610023FB7600F01E
:102E18006BF97861FB695B781846FFF71BFE034680
:102E2800FB76FB7E002B0BD1FB695B7819461248B9
:102E3800FEF770FC7B6802221A606FF0010316E04F
:102E48007B69002B08D10D48FEF764FC7B680222E1
:102E58001A606FF00B030AE0FB695A78084B1A7086
:102E6800074B1B785A1C7B681A6097F9273018465D
:102E78002837BD4680BD00BF28DB000858DB0008A6
:102E88002003002080B588B000AF0346B9607A609F
:102E9800FB7397F90F30002B30D100F025F9F8615A
:102EA800BB68BB6101220021B8690AF041F9BB691E
:102EB800FF221A70FB69002B1CD0164B1B780133BC
:102EC8007A689A4216D1BB6801337B610023FB7490
:102ED8001148FEF71FFCFB7C19467869FFF7D2FD05
:102EE8000C4B1B78184600F029F90A4B00221A707F
:102EF80000BF0AE00948FEF70DFC06E097F90F301D
:102F08007A68B9681846FFF771FB00BF2037BD46DD
:102F180080BD00BF2003002074DB000880DB0008B0
:102F280080B588B000AFF860B9607A600023FB779D
:102F3800FA68BB681344BB61BB697B610023FB74FF
:102F48007B695B781846FFF785FD0346FB74FB7CBD
:102F5800002B0BD17B695B7819461748FEF7DAFB23
:102F68007B6802221A606FF0010320E07B695A68CF
:102F78007B69DB781946104600F0C2F80346FB74FB
:102F8800FB7C002B08D10D48FEF7C4FB7B680222AE
:102F98001A606FF00B030AE07B695A78084B1A70C5
:102FA800074B1B785A1C7B681A6097F91F30184624
:102FB8002037BD4680BD00BFA0DB0008D4DB000879
:102FC8002003002080B588B000AF0346B9607A605E
:102FD800FB7397F90F30002B30D100F085F8F861BA
:102FE800BB68BB6101220021B8690AF0A1F8BB697E
:102FF800FF221A70FB69002B1CD0164B1B7801337B
:103008007A689A4216D1BB6801337B610023FB744E
:103018001148FEF77FFBFB7C19467869FFF732FD04
:103028000C4B1B78184600F089F80A4B00221A70DE
:1030380000BF0AE00948FEF76DFB06E097F90F307C
:103048007A68B9681846FFF7D1FA00BF2037BD463D
:1030580080BD00BF20030020F4DB000804DC00086A
:1030680080B582B000AF0346FB71FB7907220449A3
:103078001846FFF743FB034618460837BD4680BD90
:1030880060FA000880B500AF034800F013F800F0BC
:1030980069F800BF80BD00BF6930000880B400AF88
:1030A800034B1B681846BD465DF8047B704700BF9C
:1030B8002403002080B483B000AF7860044A7B68A2
:1030C800136000BF0C37BD465DF8047B704700BF36
:1030D8002403002080B500AF00F04BF80020FFF774
:1030E800E9FF00BF80BD000080B400AF034B1B6840
:1030F8001846BD465DF8047B704700BF18030020E2
:1031080080B483B000AF78600B46FB70FB78002B6F
:1031180004D17B68002B01D1002306E0064A7B68B6
:103128001360054AFB781371012318460C37BD4616
:103138005DF8047B704700BF1803002080B483B09B
:1031480000AF0346FB71064B1A68FB791344044A27
:10315800136000BF0C37BD465DF8047B704700BFA5
:103168001803002080B400AF00BFBD465DF8047BA3
:10317800704780B400AF00BFBD465DF8047B704760
:1031880080B584B000AF0346FB800023FB7306F0D4
:1031980054F803460B4A13600B4B1B68002B0CBFFB
:1031A80001230023DBB2FB73FB7B002B04D1054B0F
:1031B8001B68184606F052F8FB7B18461037BD46C8
:1031C80080BD00BF340300203003002080B582B0EA
:1031D80000AF0346FB80044B1B68184606F03EF818
:1031E80000BF0837BD4680BD3403002080B582B0DB
:1031F80000AF0346FB8006F020F80346074A136039
:10320800074B1B680133064A1360044B1B681846BA
:1032180006F024F800BF0837BD4680BD34030020FF
:103228003003002080B582B000AF0346FB8006F073
:1032380004F80346074A1360074B1B68013B064A1C
:103248001360044B1B68184606F008F800BF0837DF
:10325800BD4680BD340300203003002080B483B015
:1032680000AF0346FB80104B1968FA8813465B00D1
:103278001344DB000B445B79022B0AD00A4B196814
:10328800FA8813465B001344DB000B445B79032B7D
:1032980001D1012300E00023DBB218460C37BD46FC
:1032A8005DF8047B704700BF2803002080B582B01A
:1032B80000AF0023FB710023BB800023BB8008E024
:1032C800BB881846FFF7CAFF0346FB71BB8801336A
:1032D800BB80094B9B88BA889A4202D2FB79002BA3
:1032E800EED0FB79002B0CBF01230023DBB218467C
:1032F8000837BD4680BD00BF2803002080B485B0D4
:1033080000AF0346FB800B467B7113463B71284B8D
:103318001B68002B42D0264B9B88FA889A423DD2E4
:10332800234B1968FA8813465B001344DB000B44EF
:103338001B68002B32D01E4B1968FA8813465B00B5
:103348001344DB000B441B797A799A4226D2184B36
:103358001968FA8813465B001344DB000B441968AC
:103368007A791346DB009B1A9B000B441B68002BE1
:1033780014D00F4B1968FA8813465B001344DB001E
:103388000B4419687A791346DB009B1A9B000B449F
:103398001B793A799A4201D2012300E00023FB739A
:1033A800FB7B18461437BD465DF8047B704700BFA9
:1033B8002803002080B485B000AF03463A60FB7153
:1033C8000B46BB710023FB73BB79BB81FB79FF2BD9
:1033D80004D1BB89FF2B01D80123FB73FB7B184663
:1033E8001437BD465DF8047B704780B483B000AFE6
:1033F8000346FB71FB7923F01003002B0CBF01235C
:103408000023DBB218460C37BD465DF8047B7047D5
:1034180080B485B000AF0346FB710023FB73FB79D2
:10342800002B05D0FB79012B02D0FB79022B01D1AF
:103438000123FB73FB7B18461437BD465DF8047BFC
:10344800704780B485B000AF0346FB710023FB735F
:10345800FB79002B05D0FB79012B02D0FB79022BDD
:1034680001D10123FB73FB7B18461437BD465DF879
:10347800047B704780B400AF01231846BD465DF851
:10348800047B704780B485B000AF0346FB80164BC1
:103498001968FA8813465B001344DB000B441B7B56
:1034A800022B0ED1104B1968FA8813465B0013449F
:1034B800DB000B44DA880D4B1B889A4201D00123AC
:1034C80000E00023FB73FB7B002B04D0FB88002B60
:1034D80001D1012300E00023FB73FB7B184614375E
:1034E800BD465DF8047B704728030020500000208B
:1034F80080B485B000AF78600B46FB707B681968B4
:10350800FA781346DB009B1A9B000B44BB60BB6830
:103518009B687A68D28902FB03F30133FB60FB786E
:10352800002B08D17B681B7A03F01003002B02D014
:10353800FB680433FB60FB6818461437BD465DF82A
:10354800047B704780B586B000AF78600023BB74F9
:1035580000237B610023FB740023FB7415E0FB7CD4
:1035680019467868FFF7C4FFF8600023BB600121A3
:10357800F86802F005FDB860BA687B699A4201D91B
:10358800BB687B61FB7C0133FB747B681B79FA7C2D
:103598009A42E4D37B681B791A4613465B001344AE
:1035A80019467B6814331A46786903F03FF80346D6
:1035B800BB7497F91230002B03D07B684FF0FF32B1
:1035C8005A6197F9123018461837BD4680BD80B544
:1035D80082B000AF78607B685B69B3F1FF3F04D0CD
:1035E8007B685B69184603F033F97B684FF0FF325C
:1035F8005A6100BF0837BD4680BD000080B58AB05B
:1036080000AFF860B9607A60002387F82730FA685D
:10361800BB6813443B623B6AFB61FB699A78DB78C1
:103628001B0213437B83FB691B797B76FB695B7900
:103638003B760023FB753A7E797E7B8B1846FFF735
:103648005DFE0346FB75FB7D002B0BD1798B7A7EE3
:103658003B7E1D48FEF75EF87B6802221A606FF019
:1036680001032CE07B8B1846FFF7F8FD0346002B7F
:103678000CBF01230023DBB2FB75FB7D002B0AD1B5
:103688007B8B19461148FEF745F87B6802221A60C1
:103698006FF0070313E0798B7A7E3B7E0C48FEF7C8
:1036A80039F80C4A7B8B13800A4A7B7E9370094A4F
:1036B8003B7ED3707B6801221A6097F92730184641
:1036C8002837BD4680BD00BF2CDC000870DC000830
:1036D800A0DC00084C000020F0B58FB004AFF86003
:1036E800B9607A60002387F82730FA68BB6813440A
:1036F8003B623B6AFB61584B1B887B83564B9B782C
:103708007B76554BDB783B7600237B610023FB748B
:103718003A7E797E7B8B1846FFF7F0FD0346FB74F3
:10372800FB7C002B0BD1798B7A7E3B7E4B48FDF7D7
:10373800F1FF7B6802221A606FF0050387E07B8B3C
:103748001846FFF78BFD0346002B0CBF012300230F
:10375800DBB2FB74FB7C002B0AD17B8B19464048FB
:10376800FDF7D8FF7B6802221A606FF007036EE04E
:10377800FB695878FB699978FB695B681A46FFF71B
:1037880019FE0346FB74FB7C002B1BD1798B7A7ED8
:10379800387EFB695B781C46FB699B781D46FB6994
:1037A800DB781E46FB695B680393029601950094DB
:1037B80003462C48FDF7AEFF7B6802221A606FF0C3
:1037C800010344E0798B7A7E387EFB695B781C467E
:1037D800FB699B781D46FB69DB781E46FB695B68C5
:1037E800039302960195009403461F48FDF792FF44
:1037F8001E4B19687A8B13465B001344DB000B449D
:1038080019687A7E1346DB009B1A9B000B441A68E2
:103818003B7EDB0013447B61FB695A787B691A7035
:10382800FB699A787B695A70FB69DA787B699A70C8
:10383800FB695A687B695A60074BDB780133DAB257
:10384800054BDA707B6801221A6097F92730184611
:103858002C37BD46F0BD00BF4C000020F0DC00084E
:103868004CDD00087CDD0008F4DD0008280300209A
:1038780090B58DB002AFF860B9607A60002387F820
:103888002730FA68BB6813443B623B6AFB6100233C
:10389800BB610023FB75614B1B68002B08D0FB69DB
:1038A8005B889AB25D4B9B889A4201D2012300E063
:1038B8000023FB75FB7D002B0CD1FB695B889BB259
:1038C80019465748FDF726FF7B6802221A606FF0F9
:1038D80001039FE0514B1A68FB695B889BB219464C
:1038E8000B465B000B44DB001344BB61FB695B8840
:1038F8009BB21846FFF7B2FC0346002B0CBF01230E
:103908000023DBB2FB75FB7D002B0CD1FB695B88C8
:103918009BB219464348FDF7FDFE7B6802221A60F8
:103928006FF0070376E0FB699B889BB27F2B94BFFF
:1039380001230023DBB2FB75FB7D002B0CD1FB6957
:103948009B889BB219463848FDF7E4FE7B68022243
:103958001A606FF001035DE0FB69DB79002B0CBF97
:1039680001230023DBB2FB75FB7D002B08D12F4818
:10397800FDF7D0FE7B6802221A606FF0010349E070
:10398800FB695B781846FFF730FD0346FB75FB7D46
:10399800002B0BD1FB695B7819462548FDF7BAFE69
:1039A8007B6802221A606FF0090333E0FB695B88C9
:1039B8009BB21946FB695B781846FB699B889BB2EA
:1039C8001C46FB699B791A46FB69DB7901930092D7
:1039D800234602461748FDF79DFEFB695A78BB69E6
:1039E8001A72FB699B889AB2BB69DA80FB699A797B
:1039F800BB695A72FB69DA79BB699A72BB695B7AEF
:103A0800012B02D8BB6901225A727B6801221A6015
:103A180097F9273018462C37BD4690BD280300205B
:103A280064DE000894DE0008C8DE0008F8DE00083E
:103A380034DF000868DF000890B58FB000AFF86089
:103A4800B9607A60002387F82630FA68BB681344A7
:103A58003B623B6AFB610023BB61FB695B889BB2ED
:103A68007B61002387F837300023FB748A4B1B687F
:103A7800002B07D0884B9B881A467B69934201DA52
:103A8800012300E0002387F8373097F83730002B00
:103A980009D179698148FDF73DFE7B6802221A60E9
:103AA8006FF00103B2E17E4A7B6913607A4B1968B3
:103AB8007A6913465B001344DB000B44BB61FB6966
:103AC8005B781846FFF7A4FC034687F8373097F869
:103AD8003730002B0BD1FB695B7819467148FDF72D
:103AE80019FE7B6802221A606FF009038EE1FFF766
:103AF800C1FC0346002B5AD0BB695B79002B56D119
:103B0800BB691B7A03F00203002B21D0BB691B6839
:103B1800002B09D0604BDB791A46BB691B7913442B
:103B2800802B01DC012300E0002387F8373097F869
:103B38003730002B2DD0584BDA79BB69DA72564BE7
:103B4800DA79BB691B791344DAB2534BDA7120E096
:103B5800BB691B68002B09D04F4B9B791A46BB6980
:103B68001B791344FC2B01DC012300E0002387F8B8
:103B7800373097F83730002B0BD0474B9A79BB6911
:103B8800DA72454B9A79BB691B791344DAB2424B16
:103B98009A7197F83730002B09D179694248FDF7B7
:103BA800B9FD7B6802221A606FF008032EE1FB69F9
:103BB8005B78012B04D0FB695B78022B40F0908086
:103BC80000233B63012387F8373000233B637CE005
:103BD8000023FB620023BB620023FB6213E0BB6986
:103BE80019683A6B1346DB009B1A9B000B441A6852
:103BF800FB6ADB0013445B781A46BB6A1344BB625A
:103C0800FB6A0133FB62BB6919683A6B1346DB0038
:103C18009B1A9B000B441B791A46FB6A9342DEDB16
:103C28003B6B002B17D1BB691B7A03F01003002BE9
:103C380011D0BB69DB891A46BB6A02FB03F35C1D22
:103C480002F0D6F903469C4294BF01230023DBB25D
:103C580087F8373010E0BB69DB891A46BB6A02FB7C
:103C680003F35C1C02F0C4F903469C4294BF012391
:103C78000023DBB287F8373097F83730002B17D19D
:103C88003A6B79690948FDF745FD7B6802221A609D
:103C98006FF00803BAE000BF28030020CCDF00085B
:103CA80048000020FCDF00082CE0000868E000085D
:103CB800BB6919683A6B1346DB009B1A9B000B44DF
:103CC800BA6A9A603B6B01333B63BB691B791A463E
:103CD8003B6B934204DA97F83730002B7FF478AFC8
:103CE800BB69DB881846FFF74BFA0346FB74FB7C7D
:103CF800002B7DD0002387F82730FB695B78022BE7
:103D080053D0022B5FDC002B02D0012B13D05AE0DA
:103D180079694048FDF7FEFCBB6901225A71FFF73B
:103D2800C5FA0346002B4BD00120FEF7FDFB4020CF
:103D3800FEF72AFC44E079693748FDF7EBFCBB69DC
:103D48005B69B3F1FF3F22D1BB69DA88334B1B882B
:103D58009A420CD1314B5868304B9968BB6914337F
:103D68001A4602F021FE034687F827300FE07B69E8
:103D7800002B0CDCBB69DB88002B08D1B869FFF786
:103D8800E1FB034687F82730BB6900221A8297F9BE
:103D98002730002B16D1BB6903225A710220FEF787
:103DA800C3FB4020FEF7DCFB0CE0FB695B889BB2A1
:103DB80019461B48FDF7AEFCBB6902225A7102E0A6
:103DC80000BF00E000BFBB69DB881846FFF7FEF9BB
:103DD8007B6802221A6097F92730002B08D0114817
:103DE800FDF798FC7B6802221A606FF002030DE071
:103DF800FB7C002B08D10C48FDF78CFC7B68022269
:103E08001A606FF00A0301E097F9263018463C372C
:103E1800BD4690BDCCE00008F8E000085000002046
:103E280024E1000850E100089CE1000880B586B054
:103E380000AF0346B9607A60FB7397F90F30002B27
:103E480012D1BB687B617B69FF221A700C4B1A6820
:103E58000C4B1B6819460B465B000B44DB001344F4
:103E6800DA7A7B695A7006E097F90F307A68B96890
:103E78001846FEF7BBFB00BF1837BD4680BD00BF24
:103E8800280300204800002090B58BB000AFF860F0
:103E9800B9607A600023FB77FA68BB681344BB619A
:103EA800BB697B610023FB740023BB7400237B6226
:103EB8007B695B781846FFF7C4FA0346FB74FB7C02
:103EC800002B0BD17B695B781946A648FDF722FCCD
:103ED8007B6802221A606FF0090362E1A24B1B683B
:103EE800002B05D0A04B9B88002B01D0012300E0BC
:103EF8000023FB74FB7C002B08D19C48FDF70AFCCF
:103F08007B6802221A606FF001034AE101F068FA47
:103F18000346BB74BB7C002B00F03581002387F877
:103F2800233000233B847B695B78022B00F0D5802B
:103F3800022B00F30681002B02D0012B2CD000E1CC
:103F480000237B621BE0884B19687A6A13465B0082
:103F58001344DB000B445B79002B0DD0796A84484D
:103F6800FDF7D8FB804B19687A6A13465B00134447
:103F7800DB000B4401225A717B6A01337B627A4B66
:103F88009B881A467B6A9342DDDB0120FEF7CCFA58
:103F98004020FEF7F9FAD4E000237B6263E0724B1D
:103FA80019687A6A13465B001344DB000B445B799B
:103FB800022B55D16C4B19687A6A13465B0013447F
:103FC800DB000B445B69B3F1FF3F49D1664B1968CD
:103FD8007A6A13465B001344DB000B44DA88654BAE
:103FE8001B889A4214D1634B5868624B9C685E4B9D
:103FF80019687A6A13465B001344DB000B441433D8
:104008001A46214602F0D0FC034687F8233027E001
:104018007B6A002B24DC544B19687A6A13465B00D0
:104028001344DB000B44DB88002B19D14E4B196875
:104038007A6A13465B001344DB000B441846FFF70B
:1040480081FA034687F82330474B19687A6A134682
:104058005B001344DB000B4400221A827B6A3B841A
:104068007B6A01337B62404B9B881A467B6A93428A
:1040780003DA97F92330002B91D097F92330002BDE
:104088005CD100237B6221E0374B19687A6A1346BA
:104098005B001344DB000B445B79022B13D1796A74
:1040A8003548FDF737FB304B19687A6A13465B00D1
:1040B8001344DB000B4403225A710220FEF734FA42
:1040C8004020FEF74DFA7B6A01337B62264B9B88C2
:1040D8001A467B6A9342D7DB30E000237B621BE001
:1040E800214B19687A6A13465B001344DB000B44C2
:1040F8005B79022B0DD1796A1D48FDF70BFB1A4B32
:1041080019687A6A13465B001344DB000B440122EA
:104118005A717B6A01337B62134B9B881A467B6A10
:104128009342DDDBFFF7C2F80346002B08D00120DD
:10413800FEF7FAF94020FEF727FA01E000BF00E099
:1041480000BF01F05CF997F92330002B18D03B8CA5
:1041580019460A48FDF7DEFA7B6802221A606FF0FA
:1041680002031EE0E4E100082803002014E200082E
:1041780040E200085000002068E2000890E20008D1
:104188007B6801221A60BB7C002B08D10748FDF729
:10419800C1FA7B6802221A606FF00A0301E097F9FE
:1041A8001F3018462C37BD4690BD00BFDCE2000822
:1041B80080B584B000AFF860B9607A600548FDF753
:1041C800A9FA7B6808221A60002318461037BD46F2
:1041D80080BD00BF20E3000880B586B000AF03466D
:1041E800B9607A60FB73BB687B610822002178693B
:1041F80008F09EFF7B69FF221A707B6911225A70B2
:104208007B694FF0FF329A704FF0FF32DA707B69AA
:10421800002262F07F021A7100225A717B69002223
:104228009A717B690022DA717B695B7819461048BC
:10423800FDF770FA7B695B889BB219460D48FDF75C
:1042480069FA7B699B889BB219460B48FDF762FAAD
:104258007B699B7919460948FDF75CFA7B69DB792C
:1042680019460748FDF756FA00BF1837BD4680BD06
:1042780038E3000854E3000870E300088CE3000802
:10428800A8E3000880B584B000AFF860B9607A6030
:104298000548FDF73FFA7B6808221A600023184694
:1042A8001037BD4680BD00BFC4E3000880B586B0A6
:1042B80000AF0346B9607A60FB73BB687B61082274
:1042C8000021786908F034FF7B69FF221A707B6946
:1042D80001225A707B69FF229A707B690122DA7089
:1042E8007B69FF221A717B6934225A717B6900222B
:1042F80042F001029A710022DA717B695B781946F3
:104308001248FDF707FA7B699B7819461048FDF7B4
:1043180001FA7B69DB7819460E48FDF7FBF97B69E2
:104328001B7919460C48FDF7F5F97B695B79194645
:104338000A48FDF7EFF97B69DB889BB21946084804
:10434800FDF7E8F900BF1837BD4680BDE0E3000877
:1043580008E4000830E4000858E4000880E4000895
:10436800ACE4000880B586B000AFF860B9607A6048
:104378000023FB750023BB750F48FDF7CBF901F04F
:1043880045F80346BB75BB7D002B08D10B48FDF7EC
:10439800C1F97B6802221A606FF00A0307E0012066
:1043A800FEF7C2F87B6801221A6097F917301846A1
:1043B8001837BD4680BD00BFD4E4000804E50008F6
:1043C80080B58CB000AFF860B9607A60002387F8D8
:1043D8002B30FA68BB6813447B627B6A3B623B6A9A
:1043E8005B889BB2FB610023BB610023FB75002344
:1043F800FB62514B1B68002B0CBF01230023DBB26F
:10440800FB75FB7D002B08D14C48FDF783F97B68D1
:1044180002221A606FF003038AE0FB69002B05DDB6
:10442800FB69B3F5803F01DA012300E00023FB7547
:10443800FB7D002B09D1F9694148FDF76BF97B68D1
:1044480002221A606FF0010372E0FA6913465B00FA
:104458001344DB001A46F9693A48FDF75BF9FA6933
:1044680013465B001344DB00184601F0B3FFB86144
:10447800BB69002B09D1F9693348FDF74BF97B6813
:1044880002221A606FF0020352E0FA6913465B00D9
:104498001344DB001A460021B86908F049FE264A91
:1044A800BB691360FB699AB2234B9A800023FB62B5
:1044B80035E0FA6A13465B001344DB001A46BB6911
:1044C80013444FF0FF325A61FA6A13465B001344F3
:1044D800DB001A46BB69134400221A73FA6A1346B2
:1044E8005B001344DB001A46BB69134401225A736C
:1044F800FA6A13465B001344DB001A46BB6913448F
:104508000122DA81FA6A13465B001344DB001A467B
:10451800BB69134400221A82FB6A0133FB62FA6A00
:10452800FB699A42C5DB7B6801221A6097F92B3038
:1045380018463037BD4680BD2803002040E50008F6
:1045480084E50008B4E50008E0E5000890B589B006
:1045580000AFF860B9607A600023FB77FA68BB683F
:104568001344BB61BB697B617B699A78DB781B026A
:1045780013437B827B691B797B7400233B745C4B00
:104588001B68002B14BF01230023DBB23B743B7C68
:10459800002B08D15748FDF7BDF87B6802221A6046
:1045A8006FF003039FE0524B9B887A8A9A4234BF8C
:1045B80001230023DBB23B743B7C002B0AD17B8AAE
:1045C80019464D48FDF7A6F87B6802221A606FF07D
:1045D800010388E07B7C002B04D07B7CFC2B01D87A
:1045E800012300E000233B743B7C002B0BD17B7C38
:1045F8007A8A19464148FDF78DF87B6802221A60CD
:104608006FF001036FE03A4B19687A8A13465B0032
:104618001344DB000B441B68002B0CBF0123002351
:10462800DBB23B743B7C002B08D13548FDF772F8B0
:104638007B6802221A606FF0030354E0797C788A61
:104648007A7C1346DB009B1A9B0002462D48FDF737
:1046580061F87A7C1346DB009B1A9B001846244BB2
:1046680019687A8A13465B001344DB00CC1801F002
:10467800B1FE034623601E4B19687A8A13465B0015
:104688001344DB000B441B68002B0BD17B7C7A8A1C
:1046980019461D48FDF73EF87B6802221A606FF044
:1046A800020320E0124B19687A8A13465B00134410
:1046B800DB000B4418687A7C1346DB009B1A9B00CE
:1046C8001A46002108F034FD094B19687A8A134606
:1046D8005B001344DB000B447A7C1A717B6801226F
:1046E8001A6097F91F3018462437BD4690BD00BFA1
:1046F8002803002018E6000858E6000884E60008A9
:10470800C0E60008FCE6000834E7000890B58DB064
:1047180002AFF860B9607A60002387F82730FA683A
:10472800BB6813443B623B6AFB61FB699A78DB78A0
:104738001B0213437B83FB691B797B76FB695B79DF
:104748003B760023FB75844B1B68002B14BF0123A9
:104758000023DBB2FB75FB7D002B08D17F48FCF7FB
:10476800D9FF7B6802221A606FF00303F0E07A4BEE
:104778009B887A8B9A4234BF01230023DBB2FB75F6
:10478800FB7D002B0AD17B8B19467548FCF7C2FFCD
:104798007B6802221A606FF00103D9E06E4B19683A
:1047A8007A8B13465B001344DB000B441B68002B19
:1047B80014BF01230023DBB2FB75FB7D002B08D15E
:1047C8006848FCF7A7FF7B6802221A606FF00303B2
:1047D800BEE0614B19687A8B13465B001344DB001B
:1047E8000B441B797A7E9A4234BF01230023DBB243
:1047F800FB75FB7D002B0AD17B7E19465A48FCF7D6
:1048080089FF7B6802221A606FF00103A0E0524B17
:1048180019687A8B13465B001344DB000B44196854
:104828007A7E1346DB009B1A9B000B441B68002B07
:104838000CBF01230023DBB2FB75FB7D002B08D1E5
:104848004A48FCF767FF7B6802221A606FF003038F
:104858007EE03B7E002B14BF01230023DBB2FB75F7
:10486800FB7D002B0BD1397E7A7E7B8B4048FCF791
:1048780051FF7B6802221A606FF0010368E0397EFD
:104888007A8B787E3B7EDB00009303463948FCF741
:1048980041FF3B7ED800304B19687A8B13465B008A
:1048A8001344DB000B4419687A7E1346DB009B1A1D
:1048B8009B00CC1801F08EFD03462360264B196837
:1048C8007A8B13465B001344DB000B4419687A7E2D
:1048D8001346DB009B1A9B000B441B68002B0BD173
:1048E800397E7A8B7B7E2448FCF714FF7B68022292
:1048F8001A606FF002032BE0174B19687A8B134686
:104908005B001344DB000B4419687A7E1346DB0016
:104918009B1A9B000B4418683B7EDB001A4600215B
:1049280008F006FC0C4B19687A8B13465B0013449D
:10493800DB000B4419687A7E1346DB009B1A9B0048
:104948000B443A7E1A717B6801221A6097F9273066
:1049580018462C37BD4690BD2803002074E7000890
:10496800B8E70008ECE700082CE8000858E8000859
:10497800A4E80008F4E8000840E9000880B58AB017
:1049880000AFF860B9607A60002387F82730FA68CA
:10499800BB6813443B623B6AFB61FB699A78DB782E
:1049A8001B0213437B83FB691B797B76FB695B796D
:1049B8003B76FB699A79DB791B021343FB8201235F
:1049C8007B756C4B1B68002B14BF01230023DBB2E3
:1049D8007B757B7D002B08D16748FCF79BFE7B68C5
:1049E80002221A606FF00303C0E0624B9B887A8B47
:1049F8009A4234BF01230023DBB27B757B7D002BF9
:104A08000AD17B8B19465D48FCF784FE7B6802223D
:104A18001A606FF00103A9E07B8B002B0CBF012308
:104A28000023DBB27B757B7D002B0AD17B8B19467B
:104A38005348FCF76FFE7B6802221A606FF0090387
:104A480094E07B7E002B02D07B7E022B01D10123D8
:104A580000E000237B757B7D002B0AD17B7E194605
:104A68004848FCF757FE7B6802221A606FF009037A
:104A78007CE03B7E012B0CBF01230023DBB27B755E
:104A88007B7D002B0AD13B7E19463F48FCF742FE4E
:104A98007B6802221A606FF0090367E07B7E002BB7
:104AA80002D1FB8A012B05D07B7E002B04D0FB8A28
:104AB800012B01D9012300E000237B757B7D002BAE
:104AC8000AD1FB8A19463148FCF724FE7B6802228A
:104AD8001A606FF0090349E07B8B1846FEF7BEFBAE
:104AE8000346002B0CBF01230023DBB27B757B7DC3
:104AF800002B08D12648FCF70DFE7B6802221A60BD
:104B08006FF0070332E0797E3A7EFB8A2148FCF792
:104B180001FE184B19687A8B13465B001344DB00BF
:104B28000B447A7E1A73134B19687A8B13465B0011
:104B38001344DB000B443A7E5A730E4B19687A8B88
:104B480013465B001344DB000B44FA8ADA81094BF5
:104B580019687A8B13465B001344DB000B44002270
:104B68001A827B6801221A6097F92730184628377D
:104B7800BD4680BD2803002090E90008D8E9000858
:104B880010EA000874EA0008B0EA0008F4EA00082D
:104B980038EB000894EB000880B588B000AFF860E7
:104BA800B9607A600023FB77FA68BB681344BB617D
:104BB800BB695B78012B0CBF01230023DBB2FB75BB
:104BC800FB7D002B0BD1BB695B7819460A48FCF7C3
:104BD800A1FD7B6802221A604FF0FF3308E07A6873
:104BE800B968F868FFF7CAFE0346FB7797F91F30E4
:104BF80018462037BD4680BDE4EB000880B582B07A
:104C080000AF0346FB71FB790C2204491846FDF7F7
:104C180075FD034618460837BD4680BDB4FA00083E
:104C280080B500AF084B00221A60084B00221A60BA
:104C380008220021064808F07BFA064800F018F818
:104C480000F0C2FC00BF80BD340300203003002008
:104C580028030020054C000880B400AF034B1B68F4
:104C68001846BD465DF8047B704700BF3803002036
:104C780080B483B000AF7860044A7B68136000BFDB
:104C88000C37BD465DF8047B704700BF3803002031
:104C980080B584B000AF0346FB800023FB6000238F
:104CA800BB60224B1B68002B04D0204B9B88FA88E2
:104CB8009A4205D31E48FCF72DFD4FF0FF3331E033
:104CC8001A4B1968FA8813465B001344DB000B443F
:104CD800BB60FB881846FEF7D5FB0346002B03D0C4
:104CE800BB681B8A002B01D100231BE00023FB605B
:104CF8000EE0BB681968FA681346DB009B1A9B0034
:104D08000B44DB68184601F0D9FBFB680133FB60F4
:104D1800BB681B791A46FB689342EADBBB68002232
:104D28001A82002318461037BD4680BD280300208C
:104D38001CEC000880B487B000AFF8600B467A60BE
:104D4800FB72FB681968FA7A1346DB009B1A9B0012
:104D58000B443B613B695B697B613B6900229A615B
:104D6800FB68DA7AFB7A1344DAB27B691A707B69DA
:104D780001337B61FB7A002B11D1FB681B7A03F0AE
:104D88001003002B0BD07A687B691A603B699B691A
:104D980004337A6913447B613B6900229A613B6959
:104DA8007A695A6100BF1C37BD465DF8047B7047BD
:104DB80080B588B000AF78600023FB777B685B69BB
:104DC800BB610023FB7735E07B681A68FB7FDB005B
:104DD80013447B617B695B683B617B691B78FF2BB4
:104DE80012D03B69FB60FB681B687A691278114630
:104DF80001228A401340002B14BF01230023DBB299
:104E08001A46BB691A7006E07B695B781A463969ED
:104E1800B86908F0BFF97B695B781A467B689B69BB
:104E28001344BA691344BB617B6800229A61FB7F13
:104E38000133FB777B681B79FA7F9A42C4D37B687E
:104E4800BA695A6100BF2037BD4680BD80B58EB0B3
:104E580002AF0346B9607A60FB81002387F82F30E0
:104E6800002387F82E300023BB62002387F82D30FB
:104E7800002387F82730002387F82630724B1B68F9
:104E8800002B04D0704B9B88FA899A4205D36F484F
:104E9800FCF740FC4FF0FF33D1E06B4B1968FA89FF
:104EA80013465B001344DB000B44BB62FB891846C6
:104EB800FEF7E8FA034687F8273097F82730002BE3
:104EC80006D0BB6A1B8A0133BA6AD289934201D1E0
:104ED800012300E0002387F82630002387F82D30CF
:104EE80093E0BB6A196897F82D201346DB009B1ADC
:104EF8009B000B443B6201F033F8F8610023BB616F
:104F080097F82730002B03D0BB6A1B8A002B01D1EE
:104F1800012300E00023FB75FB7D002B3CD097F8B4
:104F28002D301946B86AFEF7E3FA02463B6A1A6161
:104F38003B6A1B690121184601F022F8B861BB6A77
:104F48005B69B3F1FF3F09D0BB6A5B69B969184671
:104F580001F0BAFD02463B6ADA6005E0B86901F083
:104F680039FA02463B6ADA603B6ADB68002B0DD0EF
:104F78003B6ADA68FB691A443B6A5A6197F82D3034
:104F8800BA681946B86AFFF7D5FE05E0012387F825
:104F98002E30F62387F82F3097F82E30002B2FD19C
:104FA8003B6ADB68002B2BD0BB6ADA88284B1B884E
:104FB8009A4202D0386AFFF7FBFE97F82630002B9A
:104FC8001ED03B6A1B690121184600F0D9FFB86161
:104FD8003B6ADA683B6A1B69F9890193FB690093AC
:104FE800BB69786800F0CEFD034687F82F3097F943
:104FF8002F30002B04D03B6ADB68184601F05EFABC
:1050080097F82D30013387F82D30BB6A1B7997F854
:105018002D209A4204D297F82E30002B3FF461AF2E
:10502800BB6A1B8A0133BA6AD28993FBF2F101FB8E
:1050380002F29B1A9AB2BB6A1A8297F92F30184665
:105048003037BD4680BD00BF280300201CEC000897
:105058005000002080B586B000AF03463960FB8061
:1050680013467B710023FB75FB881846FEF7BEF8D4
:10507800394B1B68002B64D0374B9B88002B60D0C2
:105088000023BB82344B1B683B610023BB824FE08B
:10509800BA8A13465B001344DB001A463B69134483
:1050A8001B7A03F00203002B3FD1BA8A13465B0038
:1050B8001344DB001A463B6913445B79032B34D154
:1050C800BA8A13465B001344DB001A463B69134453
:1050D800DB88FA889A4228D1BB8A1946002000F05A
:1050E80037FD0346FB73FB7B002B01D0002301E057
:1050F8004FF0FF33BB607B79002B06D0BB8A184684
:10510800FFF7C6FD0346FB7507E0BB8ABA68396836
:105118001846FFF79BFE0346FB75FB7B002B04D06C
:10512800BB8A1946002000F020FDBB8A0133BB82F0
:10513800094B9B88BA8A9A4203D297F91730002BF9
:10514800A6D0FB881846FEF76DF897F91730184671
:105158001837BD4680BD00BF2803002080B58EB03B
:1051680002AF7860002387F82F309C4B1B68002B18
:1051780000F02E8100F034F9034687F8293097F8BB
:105188002930002B00F02181944B1B687B62934BE4
:105198009B883B620023BB850023BB850DE1BB8D4B
:1051A8001846FEF76FF90346FB77FB7F002B00F0EC
:1051B8000181BA8D13465B001344DB001A467B6AF3
:1051C80013445B79032B40F0F580BA8D13465B00DE
:1051D8001344DB001A467B6A13441B8A002B00F039
:1051E800E980BB8D1946002000F0B2FC0346BB776E
:1051F800BB7F002B01D0002301E04FF0FF33BB61E0
:1052080000237B8500237B85BCE0BA8D13465B00B9
:105218001344DB001A467B6A134419687A8D1346D7
:10522800DB009B1A9B000B44DB68002B00F0A78077
:10523800BA8D13465B001344DB001A467B6A13449D
:1052480019687A8D1346DB009B1A9B000B441B6977
:105258000121184600F094FE786100F081FE386163
:10526800BA8D13465B001344DB001A467B6A13446D
:1052780019687A8D1346DB009B1A9B000B44DA6889
:105288003B691344FB60BA8D13465B001344DB0093
:105298001A467B6A134419687A8D1346DB009B1AF9
:1052A8009B000B441969BA8D13465B001344DB005D
:1052B8001A467B6A134418687A8D1346DB009B1ADA
:1052C8009B0003445A69FB68D31ACB1ABB60BA8D9A
:1052D80013465B001344DB001A467B6A13441968C3
:1052E8007A8D1346DB009B1A9B000B445B69BA68F6
:1052F8000021184607F01CFFBA8D13465B001344C3
:10530800DB001A467B6A134419687A8D1346DB0062
:105318009B1A9B000B44D868BA8D13465B00134454
:10532800DB001A467B6A134419687A8D1346DB0042
:105338009B1A9B000B441B69B98D01933B69009331
:105348007B690246B86900F01DFC034687F82F30D8
:1053580097F92F30002B12D0BA8D13465B001344F7
:10536800DB001A467B6A134419687A8D1346DB0002
:105378009B1A9B000B44DB68184601F09FF87B8D55
:1053880001337B85BA8D13465B001344DB001A4654
:105398007B6A13441B799BB27A8D9A42FFF435AF2E
:1053A800BA8D13465B001344DB001A467B6A13442C
:1053B80000221A82BB8D0133BB85BB8D3A6A9A42A3
:1053C8003FF7EDAE00F01BF802E0FA2387F82F3024
:1053D80097F92F3018463037BD4680BD2803002086
:1053E80080B582B000AF0123FB710020FDF7C8FE35
:1053F8000346FB71FB7918460837BD4680BD80B56A
:1054080000AF0020FDF7E2FE00BF80BD80B586B08A
:1054180000AF0123FB75614B1B68002B00F0B980BE
:105428005E4B1B68BB605D4B9B887B60FFF7D8FFBA
:105438000346FB75FB7D002B00F0AB8000233B612E
:105448000023FB60554B00221A60544B00229A80BF
:10545800524B00229A71514B0022DA71504B4FF097
:10546800FF321A60FFF7CBFF00F0D0FD00233B614D
:1054780084E03A6913465B001344DB001A46BB68B4
:105488001344DA88474B1B889A420CD13A69134671
:105498005B001344DB001A46BB6813445B6918467B
:1054A80001F0E0FA18E03B69002B15DC3A69134675
:1054B8005B001344DB001A46BB681344DB88002BEF
:1054C8000AD13A6913465B001344DB001A46BB68ED
:1054D80013441846FEF77BF83A6913465B001344F9
:1054E800DB001A46BB6813441B68002B43D000231B
:1054F800FB6027E03A6913465B001344DB001A4659
:10550800BB6813441968FA681346DB009B1A9B00B2
:105518000B441B68002B12D03A6913465B001344F6
:10552800DB001A46BB6813441968FA681346DB00A7
:105538009B1A9B000B441B68184600F0BFFFFB68D2
:105548000133FB603A6913465B001344DB001A46DB
:10555800BB6813441B791A46FB689342CADB3A6955
:1055680013465B001344DB001A46BB6813441B68F0
:10557800184600F0A3FF3B6901333B613A697B6839
:105588009A42FFF676AFB86800F098FF4020FCF723
:10559800FBFFFB7D18461837BD4680BD2803002059
:1055A800480000205000002080B500AFFFF72EFF14
:1055B80000F011F80020FFF75BFB024B00221A6095
:1055C80000BF80BD3403002080B400AF00BFBD46DB
:1055D8005DF8047B704780B400AF00BFBD465DF83E
:1055E800047B704780B584B000AF0346FB7101238C
:1055F800FB6000F004FDB860FA79BB68A3F108010C
:10560800FB68B1FBF3F39A4294BF01230023DBB29A
:1056180018461037BD4680BD80B584B000AF03463C
:10562800FB710123FB6000F0EAFCB860FB79002BFA
:1056380009D0FA79BB68991EFB68B1FBF3F39A426B
:1056480001D8012300E00023DBB218461037BD461D
:1056580080BD000080B584B000AF78600B46FB7059
:10566800FDF742FDF860F9680648FCF753F8FB7847
:105678001A467968F86807F08DFD00BF1037BD46F7
:1056880080BD00BF3CEC000880B58AB000AFF86070
:10569800B9607A60002387F82730FA68BB6813443A
:1056A8003B623B6AFB610023FB76FDF71DFD7861D9
:1056B800FB695B781846FFF7AFFF0346FB76FB7E76
:1056C800002B0BD1FB695B7819461848FCF722F8C8
:1056D8007B6802221A606FF0010323E07B69002BCC
:1056E80002D07B69002B08D11148FCF713F87B68BE
:1056F80002221A606FF00B0314E00E48FCF70AF858
:105708003B6A9A1CFB695B7819461046FFF7A2FFB3
:10571800FB695B781846FDF711FD7B6801221A606A
:1057280097F9273018462837BD4680BD54EC000845
:1057380084EC0008A0EC000880B588B000AFF860E1
:10574800B9607A600023FB77FA68BB681344BB61D1
:10575800BB697B610023FB747B695B781846FFF7A4
:1057680041FF0346FB74FB7C002B0BD17B695B7804
:1057780019461C48FBF7CEFF7B6802221A606FF0BF
:1057880001032BE07B695A687B69DB781946104670
:10579800FDF7B6FC0346FB74FB7C002B08D11248CE
:1057A800FBF7B8FF7B6802221A606FF00B0315E065
:1057B8000E48FBF7AFFFBB6903F108027B695B7812
:1057C80019461046FFF746FF7B695B781846FDF7D8
:1057D800B5FC7B6801221A6097F91F3018462037FC
:1057E800BD4680BDACEC0008E4EC000808ED0008FC
:1057F80080B582B000AF0346FB71FB7902220449F1
:105808001846FCF77BFF034618460837BD4680BD9F
:1058180044FB000880B500AF024800F011F800BF53
:1058280080BD00BFF957000880B400AF034B1B6868
:105838001846BD465DF8047B704700BF3C03002056
:1058480080B483B000AF7860044A7B68136000BFFF
:105858000C37BD465DF8047B704700BF3C03002051
:1058680080B400AF00BFBD465DF8047B704780B4CC
:1058780083B000AF78607B6800221A607A687B6822
:105888005A6000BF0C37BD465DF8047B704780B492
:1058980083B000AF786039603B6800221A607B688B
:1058A8005B683A681A603A687B685A6000BF0C37D0
:1058B800BD465DF8047B704780B483B000AF786064
:1058C80039607B681A683B681A607B681B68002B24
:1058D8000BD07B681B681A687B681A607B681B683A
:1058E800002B02D17A687B685A6000BF0C37BD462E
:1058F8005DF8047B704780B483B000AF786039608E
:105908007B681A683B681A607B681B68002B02D1A9
:105918003A687B685A607B683A681A6000BF0C373F
:10592800BD465DF8047B704780B582B000AF7860F3
:105938007868FFF79CFF00BF0837BD4680BD0000B0
:1059480080B582B000AF00233B600023FB8003F0EA
:1059580074FC0346134A13600023FB8015E0FB88A0
:10596800DB00114A13443A4611461846FFF7A4FFD4
:105978003B68002B03D03B68184600F09FFD3B684E
:10598800002BECD1FB880133FB80FB88012BE6D987
:10599800044B1B68184603F061FC00BF0837BD467E
:1059A80080BD00BF500300204003002080B582B0B6
:1059B80000AF00233B6000237B6003F03EFC0346FE
:1059C800134A136000237B6015E07B68DB00114AF3
:1059D80013443A4611461846FFF76EFF3B68002B02
:1059E80003D03B68184600F069FD3B68002BECD1FA
:1059F8007B6801337B607B68002BE6DD044B1B680A
:105A0800184603F02BFC00BF0837BD4680BD00BF19
:105A18005C0300205403002080B586B000AF786096
:105A2800396000237B750023FB823F4B1B78002BDA
:105A380005D03E48FBF76EFE6FF00B036FE00023C6
:105A4800FB8209E0FB8ADB00394A13441846FFF75A
:105A58000EFFFB8A0133FB82FB8A012BF2D9354BFF
:105A680000221A600023FB8209E0FB8ADB00324A2D
:105A780013441846FFF7FBFEFB8A0133FB82FB8ABF
:105A8800002BF2D02D4B00221A6000F0B9FB034620
:105A98007B7597F91530002B08D097F91530194602
:105AA8002748FBF737FE97F9153038E000F0A7FADA
:105AB80038610021386900F063FAF860214A022150
:105AC800F86800F0B3FD03467B7597F91530002B95
