:020000040800F2
:100000000000082061E3000837B400083DB4000890
:1000100043B4000849B400084FB4000800000000D1
:10002000000000000000000000000000058500083E
:1000300055B4000800000000C1840008F1830008E6
:10004000B1E30008B1E30008B1E30008B1E3000840
:10005000B1E30008B1E30008B1E30008B1E3000830
:10006000B1E30008B1E30008B1E30008B1E3000820
:1000700041960008B1E3000821960008B1E30008AA
:10008000B1E30008B1E3000823060008B1E300086B
:10009000B1E30008B1E30008B1E30008B1E30008F0
:1000A000B1E3000865B40008B1E30008B1E300085B
:1000B000B1E3000879B4000887B40008B1E3000890
:1000C000B1E30008B1E30008B1E30008B1E30008C0
:1000D000B1E30008B1E30008B1E300080D960008A1
:1000E000B1E30008B1E30008B1E30008B1E30008A0
:1000F000B1E30008B1E30008B1E30008B1E3000890
:10010000B1E30008B1E30008B1E30008B1E300087F
:10011000B1E30008B1E30008B1E30008B1E300086F
:10012000B1E30008B1E30008B1E30008B1E300085F
:10013000B1E30008B1E30008B1E30008B1E300084F
:10014000B1E30008B1E30008B1E30008B1E300083F
:10015000B1E30008B1E30008B1E30008B1E300082F
:10016000B1E30008B1E30008B1E30008B1E300081F
:10017000B1E30008B1E30008B1E3000800000000AB
:10018000B1E30008B1E30008B1E30008B1E30008FF
:10019000B1E30008B1E30008B1E30008B1E30008EF
:1001A000B1E30008B1E30008B1E30008B1E30008DF
:1001B000B1E30008B1E30008B1E30008B1E30008CF
:1001C000B1E30008B1E3000800000000B1E300085B
:1001D000B1E30008B1E30008B1E30008B1E30008AF
:1001E000B1E30008B1E30008B1E30008B1E300089F
:0801F000B1E30008B1E30008CF
:1001F8000348044B834202D0034B03B118477047AE
:100208000C0100200C010020000000000548064BEE
:100218001B1AD90F01EBA301491002D0034B03B1FC
:10022800184770470C0100200C0100200000000056
:1002380010B5064C237843B9FFF7DAFF044B13B126
:100248000448AFF300800123237010BD1001002083
:100258000000000020E7000808B5054B1BB1054960
:100268000548AFF30080BDE80840FFF7CFBF00BFE7
:10027800000000001401002020E7000880B483B0CB
:1002880000AF78607B689B6803F04053002B0CBF7D
:1002980001230023DBB218460C37BD465DF8047B0A
:1002A800704780B483B000AF786039607B68DB6AE0
:1002B80023F470023B681A437B68DA6200BF0C378C
:1002C800BD465DF8047B704780B483B000AF7860AA
:1002D80039607B689B6823F440723B681A437B68EB
:1002E8009A6000BF0C37BD465DF8047B704780B448
:1002F80083B000AF78607B689B6843F001027B683D
:100308009A6000BF0C37BD465DF8047B704780B427
:1003180083B000AF78607B689B6823F001027B683C
:100328009A6000BF0C37BD465DF8047B704780B407
:1003380083B000AF78607B689B6803F00103012BF2
:100348000CBF01230023DBB218460C37BD465DF80D
:10035800047B704780B483B000AF78607B689B688B
:1003680043F080427B689A6000BF0C37BD465DF859
:10037800047B704780B483B000AF78607B68DB6C27
:100388009BB218460C37BD465DF8047B704780B4B5
:1003980083B000AF78607B681B6803F00203022B10
:1003A8000CBF01230023DBB218460C37BD465DF8AD
:1003B800047B704780B483B000AF78607B681B68AB
:1003C80003F02003202B0CBF01230023DBB21846C7
:1003D8000C37BD465DF8047B704780B483B000AF2E
:1003E80078607B686FF002021A6000BF0C37BD4668
:1003F8005DF8047B704780B483B000AF78607B6899
:100408006FF020021A6000BF0C37BD465DF8047B10
:10041800704780B483B000AF78607B685B6843F056
:1004280020027B685A6000BF0C37BD465DF8047B2C
:10043800704780B483B000AF78607B685B6843F036
:1004480080027B685A6000BF0C37BD465DF8047BAC
:10045800704780B483B000AF78607B685B6823F036
:1004680020027B685A6000BF0C37BD465DF8047BEC
:10047800704780B483B000AF78607B685B6823F016
:1004880080627B685A6000BF0C37BD465DF8047B0C
:10049800704780B483B000AF78607B685B6823F0F6
:1004A80080027B685A6000BF0C37BD465DF8047B4C
:1004B800704780B483B000AF78607B685B6823F0D6
:1004C80040027B685A6000BF0C37BD465DF8047B6C
:1004D800704780B483B000AF78607B685B6803F0D6
:1004E8008063B3F1806F0CBF01230023DBB2184691
:1004F8000C37BD465DF8047B704780B483B000AF0D
:1005080078607B685B6803F04003402B0CBF0123D5
:100518000023DBB218460C37BD465DF8047B7047F4
:1005280080B584B000AF78600123FB817B681B69CC
:100538001846FFF7A3FE0346002B2FD07B685B7A93
:10054800DBB2022B11D07B685B7ADBB2042B0CD0B8
:100558007B685B7ADBB2082B07D07B681B6918467F
:10056800FFF715FF0346012B18D1786800F034F81F
:100578000346002B12D17B685B7ADBB2082B03D1D0
:100588007B6801225A7202E07B6820225A727B68DB
:100598001B691846FFF7DEFE0023FB81FB8918461E
:1005A8001037BD4680BD80B485B000AFF860B96033
:1005B8007A603B6000BF1437BD465DF8047B704726
:1005C80080B485B000AFF860B9607A6000BF1437B6
:1005D800BD465DF8047B704780B582B000AF786097
:1005E8007B681B691846FFF7E5FE0346DBB2012B63
:1005F80007D17B681B691846FFF7FDFE7B68102250
:100608005A727B685B7ADBB2102B0CBF0123002384
:10061800DBB218460837BD4680BD80B400AF00BFC6
:10062800BD465DF8047B704780B483B000AF786046
:100638000B46FB7000BF0C37BD465DF8047B704766
:1006480090B589B002AFF860084611461A460346CD
:100658007B810B463B811346FB8000237B61FB6853
:100668001B693D4A934201D13C4B7B617B69002B5E
:100678006CD0FB681A697B691A617B690022DA71A0
:10068800FB88012B62D03B89002B48D07B695B7AC1
:10069800DBB2082B43D0FB68DA687B69DA60FB6859
:1006A8001A687B691A60FB685A697B695A61FB683A
:1006B8009A797B699A71FB681A797B691A717B69E7
:1006C8001B69B96A1846FFF7ECFD7B89012B22D01C
:1006D8007B89042B17D17B691B694FF4407118463D
:1006E800FFF7F2FD7B6918697B6959697B699B791A
:1006F8001C467B69DA687B691B68009313462246AF
:10070800FFF751FF07E07B89022B04D17B691B6946
:100718001846FFF77EFE7B6908225A7216E03B896D
:10072800002B13D17B699B7ADBB2082B0ED0FB68B8
:100738005A797B695A717B89022B04D17B691B69C1
:100748001846FFF776FE7B6908229A727B6918467D
:100758001C37BD4690BD00BF002001402C01002081
:1007680080B582B000AF78607B681B691846FFF7D8
:10077800DEFD0346002B04D17B681B691846FFF792
:10078800B6FD00BF0837BD4680BD90B587B000AF45
:10079800F8600B467A607B810123FB82FB681B694A
:1007A800002B74D07B89012B05D1F868FFF7B8FEC0
:1007B8000346FB826BE07B89042B33D1FB681B6902
:1007C8001846FFF75BFD0346002B60D0FB6801224B
:1007D8005A72FB681B691846FFF7BCFD00BFFB682F
:1007E8001B691846FFF7D3FD0346002BF7D0FB68BB
:1007F8001969FB681B791A466FF0004313445B00C4
:100808007A68D4180846FFF7B5FD03462380FB68CD
:100818001B691846FFF7E1FDFB6808225A7200239E
:10082800FB8234E07B89022B31D1FB685B7ADBB237
:10083800202B0CD0FB681B691846FFF7A8FD034660
:10084800012B04D0FB685B7ADBB2102B1FD1FB684D
:100858001B691846FFF7C1FDF868FFF7BDFE0346A0
:10086800002B01D10023FB82FB6808225A72FB6827
:100878001969FB681B791A466FF0004313445B0043
:100888007A68D4180846FFF775FD03462380FB8A6B
:1008980018461C37BD4690BD80B582B000AF786061
:1008A8000B467B8013463B807B681B691846FFF725
:1008B8003EFD0346002B04D07B681B691846FFF7F2
:1008C80026FD7B681B691846FFF717FE0346002BB9
:1008D80004D07B681B691846FFF7EBFD7B681B6932
:1008E8001846FFF7F6FD0346002B04D07B681B690A
:1008F8001846FFF7BEFD3B88002B35D07B88012BBF
:100908001AD07B88022B05D17B681B691846FFF734
:10091800A0FD11E07B88042B0ED17B6818697B68E9
:1009280059697B689B791A46FFF74AFE7B681B6901
:1009380000211846FFF7C8FC7B680022DA607B6854
:1009480000221A607B6800225A617B6800229A7133
:100958007B6800221A717B681A697B681B791946C3
:100968001046FFF79EFC0AE07B6800225A717B88DC
:10097800022B04D17B681B691846FFF78AFD00BF6C
:100988000837BD4680BD80B485B000AF78607B680D
:100998001B6803F06003FB60FB68002B04D17B68D5
:1009A8001B6803F01003FB60FB6818461437BD464C
:1009B8005DF8047B704780B483B000AF78607B68D3
:1009C8005B6A18460C37BD465DF8047B704780B4F7
:1009D80083B000AF78607B681B6B18460C37BD4648
:1009E8005DF8047B704780B483B000AF78603960ED
:1009F8007B681A6A3B681A437B681A6200BF0C3727
:100A0800BD465DF8047B704780B483B000AF786062
:100A180039607B681A6A3B68DB431A407B681A6254
:100A280000BF0C37BD465DF8047B704780B483B0C7
:100A380000AF78607B685B6C43F400427B685A6463
:100A480000BF0C37BD465DF8047B704780B483B0A7
:100A580000AF78607B68DB6843F001027B68DA608E
:100A680000BF0C37BD465DF8047B704780B483B087
:100A780000AF78607B68DB6823F001027B68DA608E
:100A880000BF0C37BD465DF8047B704780B483B067
:100A980000AF78607B68DB6803F00103012B01D1AC
:100AA800012300E0002318460C37BD465DF8047B9F
:100AB800704780B483B000AF78607B68DB6843F030
:100AC80002027B68DA6000BF0C37BD465DF8047B24
:100AD800704780B483B000AF78607B68DB6823F030
:100AE80002027B68DA6000BF0C37BD465DF8047B04
:100AF800704780B483B000AF78607B68DB6803F030
:100B08000203022B01D1012300E0002318460C3711
:100B1800BD465DF8047B704780B483B000AF786051
:100B28007B68DB6843F004027B68DA6000BF0C373F
:100B3800BD465DF8047B704780B483B000AF786031
:100B48007B68DB6823F004027B68DA6000BF0C373F
:100B5800BD465DF8047B704780B483B000AF786011
:100B68007B68DB6803F00403042B01D1012300E058
:100B7800002318460C37BD465DF8047B704780B4E7
:100B880083B000AF78607B68DB6843F008027B685D
:100B9800DA6000BF0C37BD465DF8047B704780B44F
:100BA80083B000AF78607B68DB6823F008027B685D
:100BB800DA6000BF0C37BD465DF8047B704780B42F
:100BC80083B000AF78607B68DB6803F00803082B0C
:100BD80001D1012300E0002318460C37BD465DF81B
:100BE800047B704780B483B000AF78607B68DB68B3
:100BF80043F010027B68DA6000BF0C37BD465DF831
:100C0800047B704780B483B000AF78607B68DB6892
:100C180023F010027B68DA6000BF0C37BD465DF830
:100C2800047B704780B483B000AF78607B68DB6872
:100C380003F01003102B01D1012300E00023184614
:100C48000C37BD465DF8047B704780B483B000AFB5
:100C580078607B68DB6843F020027B68DA6000BF5D
:100C68000C37BD465DF8047B704780B483B000AF95
:100C780078607B68DB6823F020027B68DA6000BF5D
:100C88000C37BD465DF8047B704780B483B000AF75
:100C980078607B68DB6803F02003202B01D10123F7
:100CA80000E0002318460C37BD465DF8047B70470A
:100CB80080B483B000AF78607B68DB6843F04002A3
:100CC8007B68DA6000BF0C37BD465DF8047B70476F
:100CD80080B483B000AF78607B68DB6823F04002A3
:100CE8007B68DA6000BF0C37BD465DF8047B70474F
:100CF80080B483B000AF78607B68DB6803F04003A2
:100D0800402B01D1012300E0002318460C37BD46D3
:100D18005DF8047B704780B483B000AF78607B686F
:100D2800DB6843F080027B68DA6000BF0C37BD46A1
:100D38005DF8047B704780B483B000AF78607B684F
:100D4800DB6823F080027B68DA6000BF0C37BD46A1
:100D58005DF8047B704780B483B000AF78607B682F
:100D6800DB6803F08003802B01D1012300E000231E
:100D780018460C37BD465DF8047B704780B582B0D5
:100D880000AF78600B467B807B8803F00103002B63
:100D98000CD07B681B681846FFF7AAFF0346012B97
:100DA80004D07B681B681846FFF782FF7B8803F036
:100DB8000203002B0CD07B681B681846FFF799FECE
:100DC8000346012B04D07B681B681846FFF771FEA9
:100DD8007B8803F00403002B0CD07B681B68184643
:100DE800FFF7BAFE0346012B04D07B681B68184640
:100DF800FFF792FE7B8803F00803002B0CD07B687A
:100E08001B681846FFF7DBFE0346012B04D07B68FE
:100E18001B681846FFF7B3FE7B8803F01003002B0E
:100E28000CD07B681B681846FFF7FCFE0346012BB5
:100E380004D07B681B681846FFF7D4FE7B8803F054
:100E48002003002B0CD07B681B681846FFF71EFE9A
:100E58000346012B04D07B681B681846FFF7F6FD94
:100E68007B8803F04003002B0CD07B681B68184676
:100E7800FFF771FF0346012B04D07B681B681846F7
:100E8800FFF749FF7B8803F08003002B0CD07B68B9
:100E98001B681846FFF7F9FE0346012B04D07B6850
:100EA8001B681846FFF7D1FE00BF0837BD4680BD56
:100EB80080B582B000AF78600B467B807B8803F0FA
:100EC8000103002B0CD07B681B681846FFF710FF46
:100ED8000346012B04D17B681B681846FFF7F8FE10
:100EE8007B8803F00203002B0CD07B681B68184634
:100EF800FFF7FFFD0346012B04D17B681B681846EA
:100F0800FFF7E7FD7B8803F00403002B0CD07B6818
:100F18001B681846FFF720FE0346012B04D17B68A7
:100F28001B681846FFF708FE7B8803F00803002BB0
:100F38000CD07B681B681846FFF741FE0346012B5F
:100F480004D17B681B681846FFF729FE7B8803F0ED
:100F58001003002B0CD07B681B681846FFF762FE55
:100F68000346012B04D17B681B681846FFF74AFE2D
:100F78007B8803F02003002B0CD07B681B68184685
:100F8800FFF784FD0346012B04D07B681B681846D5
:100F9800FFF76CFD7B8803F04003002B0CD07B68C7
:100FA8001B681846FFF7D7FE0346012B04D17B6860
:100FB8001B681846FFF7BFFE7B8803F08003002BF1
:100FC8000CD07B681B681846FFF75FFE0346012BB1
:100FD80004D17B681B681846FFF747FE00BF083737
:100FE800BD4680BD80B582B000AF78600B46FB700F
:100FF800FB78022B06D17B681B6801211846FFF796
:10100800F2FC22E07B681B68124A934204D07B689A
:101018001B68114A934218D1FB78032B06D17B68D1
:101028001B6804211846FFF7DEFC0EE0FB78042B52
:101038000BD17B681B6801211846FFF7D4FC7B683D
:101048001B6804211846FFF7CEFC00BF0837BD46D1
:1010580080BD00BF000001400004014080B582B09F
:1010680000AF78600B46FB70FB78022B06D17B68DB
:101078001B6801211846FFF7C7FC22E07B681B6844
:10108800124A934204D07B681B68114A934218D1D4
:10109800FB78032B06D17B681B6804211846FFF7F1
:1010A800B3FC0EE0FB78042B0BD17B681B68012195
:1010B8001846FFF7A9FC7B681B6804211846FFF750
:1010C800A3FC00BF0837BD4680BD00BF000001403B
:1010D8000004014080B582B000AF78600B46FB7019
:1010E800FB78022B06D17B681B6810211846FFF796
:1010F8007AFC22E07B681B68124A934204D07B6822
:101108001B68114A934218D1FB78032B06D17B68E0
:101118001B6840211846FFF766FC0EE0FB78042B9D
:101128000BD17B681B6810211846FFF75CFC7B68B5
:101138001B6840211846FFF756FC00BF0837BD461C
:1011480080BD00BF000001400004014080B582B0AE
:1011580000AF78600B46FB70FB78022B06D17B68EA
:101168001B6810211846FFF74FFC22E07B681B68BC
:10117800124A934204D07B681B68114A934218D1E3
:10118800FB78032B06D17B681B6840211846FFF7C4
:101198003BFC0EE0FB78042B0BD17B681B6810210D
:1011A8001846FFF731FC7B681B6840211846FFF79B
:1011B8002BFC00BF0837BD4680BD00BF00000140C2
:1011C8000004014080B584B000AF78600023FB6064
:1011D8007B681B68254A934202D1254BFB6006E0D9
:1011E8007B681B68234A934201D1234BFB607B68D1
:1011F8001A68FB681A60FB681B681846FFF7C3FB90
:10120800B860BB68002B06D0BB68102B03D0FB6806
:1012180001221A7102E0FB6800221A71FB681B6840
:10122800164A934204D0FB681B68154A934204D1BE
:10123800FB681B681846FFF7F9FBFB681B680F4A39
:10124800934204D0FB681B680D4A934208D17B681F
:101258001B681846FFF7BBFB0346DAB2FB685A71F6
:10126800FB6818461037BD4680BD00BF000400402B
:101278004801002000080040D4010020000001407F
:101288000004014080B582B000AF78607B681B68BD
:101298001846FFF790FB034618460837BD4680BD41
:1012A80080B485B000AF786039600023FB7397F98C
:1012B8000F3018461437BD465DF8047B70470000B0
:1012C80080B584B000AF786039600023FB727B681A
:1012D800002B05D1364800F003FF4FF0FF3362E0E2
:1012E8003B68002B05D1334800F0FAFE4FF0FF337E
:1012F80059E0314B93ED007BB8EE006BB4EE467BC2
:10130800F1EE10FA06D13B68D3E900232A49C1E976
:10131800002305E0284BD3E900233968C1E90023FD
:10132800254B93ED007BBFEE006BB4EE467BF1EEF0
:1013380010FA02D1214800F0D3FE7B685B681B6875
:101348001F4A13607B685B685B681E4A13607B6892
:101358005B689B681C4A13607B685B68DB681B4A98
:1013680013601B4B00221A6001F016FB0023FB6080
:101378000023FB6007E0174AFB68174942F823106F
:10138800FB680133FB60FB68012BF4D900F04CFFCC
:101398000346FB7297F90B30002B02D10F4B012249
:1013A8001A7097F90B3018461037BD4680BD00BF3C
:1013B80038E700085CE700082800002088E70008F4
:1013C8004003002044030020480300204C03002071
:1013D8005003002060020020092A00083D03002075
:1013E80080B586B000AF78600023FB7500233B61B1
:1013F8000023FB732A4B1B78DBB2002B0CBF0123A5
:101408000023DBB2BB73274B02221A707B68002BC8
:101418000BD1234B1B78DBB2002B06D1224B1B7858
:10142800DBB2002B01D1012300E00023FB7316E09F
:101438000A2006F0DDFE3A6942F2107313443B615C
:101448007B68B3F1FF3F05D03A697B689A4201D9BE
:10145800012300E00023FB73002000F033FF104B52
:101468001B78DBB2002B07D10F4B1B78DBB2002BAC
:1014780002D1FB7B002BDBD00A4B03221A70FB7BCB
:10148800002B01D09C23FB75BB7B002B01D001F006
:10149800B1FB97F9173018461837BD4680BD00BF15
:1014A8003B0300203D0300203C03002080B586B0AC
:1014B80000AF034687ED000BFB810023FB7501237A
:1014C800BB7597ED007BB5EEC07BF1EE10FA05D544
:1014D8002E4800F005FE4FF0FF3353E0FB89FF2B49
:1014E80008D9FB89FF221946294800F0F9FD4FF079
:1014F800FF3347E0274B1B78DBB2032B04D0254B87
:101508001B78DBB2012B02D1224B04221A70FB8913
:10151800012B15D8FB89204A52F82330002B0FD015
:1015280001F02CFF03467B757B7D022B08D1FB89DC
:10153800194A52F82330FA89104698470346BB7572
:10154800FB897B82FB89184697ED000B00F0E4FDD0
:10155800BB7D002B06D07B8A184601F0E7FE0346C8
:10156800FB7503E07B8A184601F043FF97F91730B3
:10157800002B05D097F917301946084800F0B0FD40
:1015880097F9173018461837BD4680BDF4E70008AC
:1015980038E800083D0300206002002078E80008D1
:1015A80080B582B000AF0023FB71002000F08AFEF6
:1015B8000346FB7197F9073018460837BD4680BDCA
:1015C80080B582B000AF0023FB710B4B06221A7066
:1015D80000F016FF0346FB710822002107480DF0B2
:1015E8005BF801F08DFA044B00221A7097F9073066
:1015F80018460837BD4680BD3D0300206002002024
:1016080080B400AF034B1B78DBB21846BD465DF8CB
:10161800047B70473C03002080B400AF034B1B7869
:10162800DBB21846BD465DF8047B704754030020C2
:1016380080B483B000AF78607B681B6843F0010218
:101648007B681A6000BF0C37BD465DF8047B7047A5
:1016580080B483B000AF78607B681B6823F0010218
:101668007B681A6000BF0C37BD465DF8047B704785
:1016780080B483B000AF786039607B681B6823F062
:1016880004023B681A437B681A6000BF0C37BD46EA
:101698005DF8047B704780B483B000AF78607B68E6
:1016A8001B6803F0040318460C37BD465DF8047B3D
:1016B800704780B483B000AF78607B68DB6A1846F7
:1016C8000C37BD465DF8047B704780B483B000AF2B
:1016D800786039607B683A681A6300BF0C37BD468A
:1016E8005DF8047B704780B483B000AF78603960E0
:1016F8007B683A685A6300BF0C37BD465DF8047BC7
:10170800704780B483B000AF78607B685B6B184625
:101718000C37BD465DF8047B704780B483B000AFDA
:1017280078607B685B6943F001027B685A6100BF9F
:101738000C37BD465DF8047B704780B483B000AFBA
:10174800786039607B683A689A6100BF0C37BD469B
:101758005DF8047B704780B483B000AF786039606F
:101768003B681A047B689A6100BF0C37BD465DF878
:10177800047B704780B584B000AF786087ED000ABD
:10178800D7ED007AF5EEC07AF1EE10FA03D54FF0F6
:1017980000033B600AE0D7ED007A9FED167AF4EE7D
:1017A800C77AF1EE10FA01DD134B3B607B681B68CA
:1017B8001846FFF77EFFF8607B681B79002B0CBF8B
:1017C80001230023DBB21A46FB68134407EE903A64
:1017D800B8EE677AD7ED007A27EE277ADFED056A4B
:1017E800C7EE267AFCEEE77A17EE903A18461037DD
:1017F800BD4680BD0000C8420000C84280B582B026
:1018080000AF786039607B681B681846FFF779FF7E
:1018180002463B68934205D07B681B6839681846C6
:10182800FFF761FF00BF0837BD4680BD80B584B0B3
:1018380000AF786087ED000A97ED000A7868FFF737
:1018480099FFF860F9687868FFF7D8FF00BF10378C
:10185800BD4680BD80B485B000AF78607B681B68EA
:101868009A680A4B1340FB60FB68062B03D0FB68A1
:10187800B3F5803F01D1012300E00023DBB2184615
:101888001437BD465DF8047B704700BF07000100B0
:1018980080B584B000AF78600B46FB707B681B682E
:1018A8001846FFF7F8FEF860FB78002B0FD07B682E
:1018B8001B68234A934204D07B681B68214A9342E1
:1018C80005D17B681B6800211846FFF7FEFEFB6800
:1018D800042B11D07B681B6804211846FFF7C8FE4B
:1018E8007B681B681846FFF718FF7B681B68F96858
:1018F8001846FFF7BDFE04E07B681B681846FFF733
:101908000CFF7B681B681846FFF792FEFB78002BDC
:1019180011D07B681B680A4A934204D07B681B6815
:10192800084A934207D17B681A687B685B79194635
:101938001046FFF7CAFE00BF1037BD4680BD00BF86
:10194800000001400004014080B582B000AF78601B
:101958007B681B681846FFF77BFE00BF0837BD464B
:1019680080BD000080B58CB002AF78607B68002233
:101978001A727B6801225A600023BB61174BFB6116
:1019880000233B620023BB74002387F82430012323
:1019980087F8253000237B740123FB6001233B7407
:1019A80007F10C0000230093042301220121FEF714
:1019B80047FE02467B68DA607B68DB681846FEF7FC
:1019C800CFFE7B68DB6801211846FEF72DFE7B6899
:1019D80001221A7200BF2837BD4680BD0020014091
:1019E80080B5A6B000AF78607B6801225A60194BB9
:1019F800BB6000233B7300237B7307F10803184681
:101A0800FFF7E0FB02467B68DA607B68DB68002151
:101A18001846FFF7B3F97B68DB6802211846FFF721
:101A2800E1FA7B68DB681846FFF714FF034687F87E
:101A3800973097F89730002B05D17B68DB68002139
:101A48001846FFF725FF7B6801221A7200BF9837F6
:101A5800BD4680BD0004004080B5A6B000AF7860E8
:101A68007B6801225A60204BBB6000233B73002334
:101A78007B7307F108031846FFF7A4FB02467B684F
:101A8800DA607B68DB6800211846FFF777F90223E4
:101A980087F897307B68DB6897F8972011461846D7
:101AA800FFF7A0FA7B68DB6897F89720114618467D
:101AB800FFF710FB7B68DB681846FFF7CBFE034691
:101AC80087F8963097F89630002B05D17B68DB684D
:101AD80000211846FFF7DCFE7B6801221A7200BF5E
:101AE8009837BD4680BD00BF0008004000000000D8
:101AF8002DE9B04F88B000AF7D4BDB68BA1D0421DB
:101B08001846FEF742FE7A4BDB6A7A4A928CF988CD
:101B180001FB02F207EE902AB8EE677B9FED6C6B33
:101B280027EE067BF7EEC77BB0EE670A1846FFF78D
:101B38007DFE6F4B9B6B07EE903AB8EEE76B6D4BF3
:101B480093ED047BB4EEC76BF1EE10FA07D5684B42
:101B58009B6B002B03DB674BD3E9002303E04FF0BB
:101B680000024FF00003C7E90423614B9B6B07EEAB
:101B7800903AB8EEE76B5F4B93ED027BB7EE005BF4
:101B880037EE457BB4EEC76BF1EE10FA03DB584B2A
:101B980000229A6304E0564B9B6B0133544A9363CB
:101BA800554BFB6097ED047BB5EE407BF1EE10FAE8
:101BB80014BF01230023DBB2FB61FB691946F868F7
:101BC800FFF7BBFDFB6903F00103002B0CBF0123EA
:101BD8000023DBB21946F868FFF7BDFD444BDB690B
:101BE8001846FFF74FFBB860424B1B6A00229A4623
:101BF8009346BB6800229846914608FB0BF20AFB05
:101C080009F31344AAFB08452B441D463B4BC3E983
:101C18000045374B93F84130002B0ED1344B00224E
:101C2800DA63334B012283F8412034494FF0000234
:101C38004FF00003C1E9022334E02D4BDB6BB3F115
:101C4800004F03D16FF00043FB6103E0284BDB6BCF
:101C58005B42FB61FB69B3F5004F04DBFB69A3F54D
:101C68008033FB6107E0FB6913F5004F03DAFB697A
:101C780003F58033FB611E4B0022DA63FB6907EE34
:101C8800903AB8EEE77B9FED145B87EE056B9FED0E
:101C9800145B86EE057B9FED146B27EE067B174BD6
:101CA80083ED027B164B9A6A01329A629B6A07EEB1
:101CB800903AB8EE676B124B93ED0C7B104B26EE07
:101CC800077B83ED087B00BF2037BD46BDE8B08F9A
:101CD800000000000000A03E000000000000A94035
:101CE800FCA9F1D24D62503F0000000000004E40B8
:101CF8007802002000000020000402406802002052
:101D0800C00200200000000080B500AF30494FF04D
:101D18000002304BC1E90E232D492BA3D3E9002340
:101D2800C1E90C232A4B2C4A9A60294B2B4ADA60CA
:101D3800274B2B4A1A61264B2A4A5A61244B2A4AB6
:101D48005A60294B294A1A60284B294A1A60274B9E
:101D5800274A5A60254B264A9A60244B244ADA605F
:101D6800224B234A1A61214B214A5A61184A184BBF
:101D78005B6818329A60164A154B5B6808325A60DD
:101D8800134A134B5B682032DA601A4B00225A6000
:101D9800184B00221A701748FFF7E4FD154B002274
:101DA8005A62144B002283F820201348FFF718FECC
:101DB800104B00225A610F4B00221A740F48FFF78C
:101DC8004BFE00BF80BD00BFFCA9F1D24D62503F61
:101DD800C002002000004E409A1534D87000C89BFD
:101DE8004F799488F783F93C080300201C030020EE
:101DF800C40F010878020020980200208802002001
:101E080080B582B000AF334B1B78002B11D1314B1A
:101E180001221A702F4B5B68012B0AD12D4B1B7ABC
:101E2800002B06D02B4BDB68012201211846FEF758
:101E380033FD284B93F82030002B1DD1254B012270
:101E480083F82020234B5B6A012B15D1214B93F893
:101E58002830002B10D01F4BDB6A1846FFF774FDA3
:101E68001C4BDB6A00211846FFF722F8194BDB6A86
:101E780002211846FFF7F2F8164B1B7C002B25D1E0
:101E8800144B01221A74134B5B69012B1ED1114BA1
:101E98001B7E002B1AD00F4BDB691846FFF754FD49
:101EA8000C4BDB6900211846FFF702F80223FB718F
:101EB800084BDB69FA7911461846FFF7CFF8054B4E
:101EC800DB69FA7911461846FFF740F900BF083771
:101ED800BD4680BD7802002080B582B000AF4FF0CB
:101EE80000024FF00003C7E90023164B1B785A1C69
:101EF800D1B2144A1170002B09D0134B01221A6079
:101F0800104B1B78013BDAB20E4B1A7016E062B622
:101F180000BF0E4B1B68D3E90823C7E90023FFF76E
:101F2800E7FD97ED000B0020FFF7C0FA72B600BF7F
:101F3800044B1B78013BDAB2024B1A700837BD46D6
:101F480080BD00BF3803002034030020C00F010803
:101F580080B586B000AF786039605B4B7B615B4BC6
:101F68003B610023FB735A4B00221A70594B002225
:101F78001A7001DF0BF090F808F0D4FD06F050F964
:101F880009F00CF909F0E2F808F0DCFF09F0B0F804
:101F980008F0ACFE08F03AFF08F022FE4E4B1B6832
:101FA80000221A6000210020FFF77AF90346FB732C
:101FB80097F90F30002B02D097F90F3080E0FFF728
:101FC800A3FE72B600BF62B600BF434B1B685A68D7
:101FD800414B1B68383319461046FFF771F9034621
:101FE800FB7397F90F30002B0DD14FF0FF30FFF73F
:101FF800F7F9FFF705FB0346002B04D0364B1B68A7
:10200800012283F8402072B600BF97ED050A06F05A
:10201800FBF9FFF701FB0346002B0CD1FFF7F0FAA1
:102028000346002B07D12C4B1B6893F84030002B3C
:1020380001D1012300E00023DAB2264B1A7062B600
:1020480000BF62B600BF2FE0FFF7AAFA0346FB7392
:10205800FFF7E2FA0346002B0AD1FFF7D1FA03464D
:10206800002B05D11C4B1B6893F84030002B01D086
:10207800012300E00023DAB2154B1A70144B1B78C9
:10208800DBB2002B0CBF01230023DBB21A46114B35
:102098001A700F4B1B78DBB2002B05D00F4B1B6857
:1020A8000E4A23F0010313600A4B1B78DBB2002BA6
:1020B800CAD1FFF7A5FEFFF783FA72B600BF002367
:1020C80018461837BD4680BD6F12833A0000C042DB
:1020D800390300203A030020C00F010810E000E097
:1020E8000FB480B400AF00BFBD465DF8047B04B0F8
:1020F800704780B485B000AFF860B9607A60FB685B
:10210800BA681A60FB6804337A681A6000BF14372B
:10211800BD465DF8047B704780B58AB000AF87ED97
:10212800020B0346FB80FB88002B60D197ED027BF6
:102138009FED316B27EE067B87ED067B9FED301B0D
:1021480097ED060B0CF034F9B0EE407BFCEEC77B44
:1021580017EE903A7B6100237B6297ED067B9FED3B
:102168002A6BB4EEC67BF1EE10FA0ADD97ED066B2A
:102178009FED255B86EE057BFCEEC77B17EE903A5C
:102188007B627A6A79692448FFF7B3FF234B93EDA2
:10219800007BBFEE006BB4EE467BF1EE10FA21D067
:1021A8001E4B93ED007BB8EE006BB4EE467BF1EE70
:1021B80010FA17D0194B93ED006B97ED027B36EEB2
:1021C800476B97ED027B9FED125B27EE057BB4EE24
:1021D800C76BF1EE10FA4CBF01230023DBB21A469D
:1021E8000F4B1A700F49D7E90223C1E9002300BF3A
:1021F8002837BD4680BD00BF0000000000408F406A
:10220800000000000000F0410000E0FFFFFFEF4188
:10221800000000000000B03C6003002028000020FF
:10222800540300206803002080B584B000AF002369
:10223800BB6000237B600023FB731F494FF0000243
:102248004FF00003C1E900233A1D07F108031146C6
:10225800184605F09FFFBB687A681146184604F0D7
:10226800BFF80346FB7397F90F30002B05D01348CE
:10227800FFF736FF97F90F301AE03A1D07F1080308
:102288001146184605F09DFFBB687A681146184646
:1022980000F050FF0346FB7397F90F30002B05D071
:1022A80097F90F3019460648FFF71AFF97F90F30CC
:1022B80018461037BD4680BD58030020F4E90008D1
:1022C8001CEA000880B584B000AF0346FB71002308
:1022D800FB730023BB73002005F08AFF00237B7388
:1022E80004F04CFA0346FB7397F90F30002B0DD01E
:1022F80097F90F3013F1020F08D097F90F301946EC
:102308003C48FFF7EDFE0123BB730BE07B7B002B02
:1023180004D197F90F3013F1020F01D0012300E027
:1023280000237B73BB7B002B21D100F035FF0346D4
:10233800FB7397F90F30002B0DD097F90F3013F17D
:10234800020F08D097F90F3019462B48FFF7C8FE3F
:102358000123BB730BE07B7B002B04D197F90F3073
:1023680013F1020F01D0012300E000237B73BB7B34
:10237800002B21D104F08CF90346FB7397F90F3039
:10238800002B0DD097F90F3013F1020F08D097F9F1
:102398000F3019461948FFF7A3FE0123BB730BE062
:1023A8007B7B002B04D197F90F3013F1020F01D07A
:1023B800012300E000237B73FB79002B0DD0002064
:1023C80005F016FFBB7B002B02D17B7B002B01D1D4
:1023D800012300E00023BB7301E00123BB73BB7B37
:1023E800002B3FF47BAF97F90F3018461037BD46E6
:1023F80080BD00BF44EA00087CEA0008ACEA000897
:1024080080B582B000AF0023BB70394B1B78DBB2BC
:10241800002B02D0002000F0DDFF00F0AFFF0346E4
:10242800FB7000237B600EE00A2005F0E1FE7A686D
:1024380042F2107313447B600120FFF743FF00F062
:102448009DFF0346FB707B682A4A934202D8FB78BB
:10245800002BE9D100F09EFF0346BB7097F90230CC
:10246800002B05D097F9023019462348FFF738FEAC
:1024780004F0FEFA0346BB7097F90230002B05D032
:1024880097F9023019461D48FFF72AFE1C4B002217
:102498001A701C4B00221A701B4B00221A601B4B2F
:1024A80000221A601A4B00221A601A4B00221A6086
:1024B800194B00221A6019494FF000024FF04043AF
:1024C800C1E900230A4B00221A700822002114488F
:1024D8000CF0E2F813494FF000024FF00003C1E995
:1024E800002397F9023018460837BD4680BD00BF63
:1024F80054030020FF2C3101E4EA000800EB000837
:102508003B0300203C03002040030020440300203C
:10251800480300204C03002050030020280000201E
:10252800600300206803002080B487B000AF624BCE
:102538001B687B617B69002B00F0B8805F4B1B78C0
:10254800DBB2002B04D15C4B1B68002B00F0AE8083
:102558005B4B1B78DBB2022B40F0A880594B1B78F1
:10256800002B40F0A3807B69D3E90023C7E902234D
:10257800554B1B78002B00F08A80544B1B78DBB23C
:10258800002B04D0514B1B78DBB2022B01D1012365
:1025980000E00023FB714D4B1B78DBB2012B04D00C
:1025A8004A4B1B78DBB2022B01D1012300E0002348
:1025B800BB71FB79002B33D0454B93ED007B97ED36
:1025C800026BB4EEC76BF1EE10FA0ADB414B93EDE8
:1025D800006B3F4B93ED007BB4EEC76BF1EE10FA46
:1025E80014D43B4B93ED007B97ED026BB4EEC76BB5
:1025F800F1EE10FA14DD374B93ED006B344B93ED8D
:10260800007BB4EE476BF1EE10FA09D1324B1B6830
:10261800002B02D1314B01221A702A4B01221A7069
:10262800BB79002B33D02A4B93ED007B97ED026BDF
:10263800B4EEC76BF1EE10FA0AD5264B93ED006B9A
:10264800234B93ED007BB4EEC76BF1EE10FA14DA6E
:102658001F4B93ED007B97ED026BB4EE476BF1EEE9
:1026680010FA14D11B4B93ED006B194B93ED007BC3
:10267800B4EEC76BF1EE10FA09DD174B1B68002B9F
:1026880002D1164B01221A700E4B01221A700D4B03
:102698001B78002B0CBF01230023DBB21A460A4B20
:1026A8001A700C49D7E90223C1E9002300BF1C377F
:1026B800BD465DF8047B7047740300207803002052
:1026C80094030020A3030020A0030020900300200F
:1026D80080030020980300208C030020A203002020
:1026E80080B582B000AF0023FB719E4B1B78DBB234
:1026F800002B18D19C4B00221A709C4B00221A7098
:102708009B4B1B78DBB2002B2DD0964B02221A7004
:10271800974B00221A70974B1B78DBB2002B22D103
:102728000123FB711FE0924B00221A708E4B1B781D
:10273800DBB2002B09D0904B00221A70894B002283
:102748001A70894B00221A700DE08A4B1B78DBB295
:10275800002B02D10123FB7105E0844B1B78FB7130
:10276800824B00221A707F4B1B78DBB2042B00F2DD
:10277800D78001A252F823F095270008CF28000837
:10278800AF270008832800080D280008784B1B781D
:10279800DBB2002B00F0D880724B02221A70744B07
:1027A80000221A70D0E0FB79002B00F0CF80734B29
:1027B8001B68002B0DDD6F4B1B78DBB2012B08D19A
:1027C8006E4B1B681A466E4B1A60664B03221A70D2
:1027D800BCE06C4B1B68002B0AD0674B01221A70B7
:1027E800684B1B68664A13605E4B04221A70ADE0A2
:1027F8006548FFF775FC604B00221A70594B0022A0
:102808001A70A3E05E4B1B68002B04D05C4B1B685E
:10281800013B5B4A13605A4B1B68002B40F09880C1
:102828005A4B1B78DBB2012B06D1534B00221A708E
:102838004C4B00221A708BE0554B1B68002B0AD0BA
:102848004D4B00221A70524B1B684D4A1360454B82
:1028580001221A707CE0FB79002B07D0494B1B68DA
:10286800474A13603F4B04221A7071E0424B002222
:102878001A703C4B02221A706AE0414B1B68002B0D
:1028880004D03F4B1B68013B3D4A13603C4B1B681F
:10289800002B5FD13B4B1B68002B0AD0364B012223
:1028A8001A70384B1B68364A13602E4B04221A7074
:1028B80050E03548FFF714FC2F4B00221A70294BC3
:1028C80000221A7046E02E4B1B68002B04D02C4BBC
:1028D8001B68013B2A4A1360294B1B68002B3BD11C
:1028E800FB79002B18D0274B1B68002B0AD0224BF2
:1028F80001221A70234B1B68214A1360194B0422CA
:102908001A7029E02048FFF7EBFB1B4B00221A70D6
:10291800144B00221A701FE0124B02221A701BE09F
:10292800104B1B78DBB219461A48FFF7D9FB124B3C
:1029380000221A700D4B00221A700B4B00221A70DD
:10294800084B00221A7008E000BF06E000BF04E050
:1029580000BF02E000BF00E000BF00BF0837BD466F
:1029680080BD00BF9403002091030020A303002032
:102978003400002092030020A20300208C030020D2
:10298800A40300203000002024EB0008930300205B
:10299800880300204CEB000880B400AF10494FF0CA
:1029A80000024FF00003C1E900230E4B00221A7009
:1029B8000D4B1B78DAB20D4B1A700D4B00221A70B2
:1029C8000C4B00221A700C4B00221A600B4B002291
:1029D8001A7000231846BD465DF8047B704700BF97
:1029E80098030020A003002092030020A1030020E8
:1029F800A2030020A3030020A403002094030020C6
:102A080080B584B000AF0346FB80FB88002B3FD124
:102A1800314B1B78DAB2314B1B789A4214BF012331
:102A28000023DBB2FB732C4B1B78DAB22B4B1A70EA
:102A3800FB7B002B0BD02A4B00221A70294B00225B
:102A48001A70294B00221A60284B00221A70224B58
:102A58001B78DBB2012B1BD1244B1B78DBB2002B7C
:102A680004D1234B1B78DBB2002B08D11F4B1B78FA
:102A7800DBB2012B0CD11C4B1B68012B08D11A4B64
:102A880000221A601A4B00221A70184B02221A7080
:102A9800114B1B78DBB2012B07D1164B1B889BB25D
:102AA800FA889A4201D1FFF73FFDFB88002B05D138
:102AB800FFF716FE104B00221A7006E00E4B1B782B
:102AC800002B02D00D4B1B7801E0054B1B781846F4
:102AD8001037BD4680BD00BF92030020A10300202F
:102AE800A2030020A3030020A403002094030020D5
:102AF8003400002070030020A9030020A803002050
:102B080080B400AF26494FF000024FF00003C1E93E
:102B18000023244B00221A70234B00221A70234BE7
:102B280000221A70224B00221A80224B00221A70AF
:102B3800214B00221A70214B00221A60204B0022E0
:102B48001A70204B00221A701F4B00221A601F4B6C
:102B580000221A701E494FF000024FF00003C1E92D
:102B680000231C4B4FF47A721A601B4B00221A6028
:102B78001A4B00221A601A4B00221A70194B0122B4
:102B88001A70194B00221A70184B00221A70184B31
:102B980000221A7000231846BD465DF8047B704772
:102BA80098030020A003002094030020A103002024
:102BB80070030020A2030020A3030020A403002028
:102BC800A8030020A9030020740300207803002034
:102BD8008003002030000020880300208C030020A0
:102BE800900300203400002091030020920300206D
:102BF8009303002080B400AF194B1B78DBB2002B85
:102C080029D1184B1B78DBB2002B0BD0164B1B7845
:102C1800DBB2002B06D1154B01221A70144B01228E
:102C28001A7018E0104B1B78DBB21A460D4B1B7854
:102C3800DBB2002B0CBF01230023DBB21340002BB7
:102C480006D00A4B00221A70094B01221A7002E0C2
:102C5800074B00221A7000BFBD465DF8047B704721
:102C6800920300203400002091030020A8030020D4
:102C7800A903002080B586B000AFF860B9607A601B
:102C88003B600023FB7503F0E7FE3861FB681B68B7
:102C9800184604F0F7F80021386803F055FE02469C
:102CA800BB681A6003F040FE02467B681A60BB6886
:102CB8001B68002B0FD0BB681B681946386904F0E5
:102CC800E7FB0246FB681A60FB681B68002B04D10F
:102CD800F623FB7501E0F823FB7597F917301846C2
:102CE8001837BD4680BD000080B584B000AFF860DD
:102CF800B9607A60FA68BB6813441B7819460848BB
:102D0800FFF7EEF9FB68002B02D0F86804F0BAF878
:102D18007B6800221A60002318461037BD4680BD24
:102D280070EB000880B584B000AFF860B9607A60D5
:102D3800FA68BB6813441B7819460648FFF7D0F9B0
:102D48007B6802221A604FF0FF3318461037BD46E1
:102D580080BD00BFCCEB000880B485B000AF03464F
:102D68000A46FB711346BB710523FB73FB79F02BF5
:102D780002D90023FB7322E0FB79E32B05D9FB7909
:102D8800F02B02D80123FB7319E0FB79D22B02D96F
:102D9800FB79E22B08D9FB79C02B08D1BB79002B32
:102DA80005D0BB79022B02D80223FB7307E0FB791D
:102DB800C72B04D9FB79D22B01D80323FB73FB7BE8
:102DC80018461437BD465DF8047B704780B58CB053
:102DD80000AFF860B9607A603B60FB68BB62BB6AB1
:102DE8001B7887F82730002387F82F3097F827308B
:102DF800C02B06D1BB68012B03D9BB6A5B7887F867
:102E08002F30364B1B78002B3ED097F82F2097F8A1
:102E1800273011461846FFF79FFF0346FB7600232D
:102E280087F82E30FB7E052B23D0FB7E2C4A52F8E8
:102E380023307B6100233B617B69002B19D097F815
:102E480027207B691046984738613B69002B14BFDF
:102E580001230023DBB287F82E3097F82E30002BA1
:102E680007D03B695A687B681A603B699A683B6877
:102E78001A6097F82E30002B2CD17B68194A1A60FB
:102E88003B68194A1A6025E097F82730FF2B1BD1B9
:102E9800134B1B683B627B6800221A603B68002268
:102EA8001A603B6A002B15D03B6AFF209847F861EF
:102EB800FB69002B0ED0FB695A687B681A60FB69B6
:102EC8009A683B681A6005E07B68084A1A603B68A4
:102ED80000221A6000BF3037BD4680BDAB0300201A
:102EE800B00300202D2D0008BD2F0008F12C00088C
:102EF80080B483B000AF0346FB71044AFB791370BA
:102F080000BF0C37BD465DF8047B7047AB0300205B
:102F180080B400AF034B1B781846BD465DF8047BB0
:102F2800704700BFAC03002080B483B000AF0346F5
:102F3800FB71064B1A78FB791343DAB2034B1A700C
:102F480000BF0C37BD465DF8047B7047AC0300201A
:102F580080B483B000AF0346FB7197F90730DB43B9
:102F68005AB2074B1B785BB213405BB2DAB2044B20
:102F78001A7000BF0C37BD465DF8047B704700BF70
:102F8800AC03002080B400AF034B1B781846BD4645
:102F98005DF8047B704700BFAD03002080B400AF2C
:102FA800034B1B881846BD465DF8047B704700BF7D
:102FB800AE03002080B586B000AF0346B9607A60E2
:102FC800FB7397F90F30002B05D1BB683B613B6958
:102FD800FF221A7070E0BB687B617B69FE221A7061
:102FE80097F90F300F330E2B5CD801A252F823F05B
:102FF800A53000089D300008953000088D30000885
:1030080085300008753000087D3000086D300008F4
:10301800653000085D300008553000083D30000874
:1030280035300008453000084D3000087B693022F3
:103038005A7041E07B6929225A703DE07B6922225F
:103048005A7039E07B6920225A7035E07B6900228A
:103058005A7031E07B6923225A702DE07B69212266
:103068005A7029E07B6911225A7025E07B69272272
:103078005A7021E07B692A225A701DE07B69102270
:103088005A7019E07B6924225A7015E07B6928225E
:103098005A7011E07B6926225A700DE07B69312253
:1030A8005A7009E097F90F3019460548FFF718F8E4
:1030B8007B6920225A70FFE700BF1837BD4680BDE4
:1030C800FCEB000880B487B000AF0346B9607A60B3
:1030D800FB7300237B61BB68002B23D000233B617B
:1030E80000233B6117E03A6913465B0013449B00D9
:1030F8001A46BB6813441B78FA7B9A4208D13A698E
:1031080013465B0013449B001A46BB6813447B615B
:103118003B6901333B613A697B689A4202D27B6919
:10312800002BE0D07B6918461C37BD465DF8047B50
:103138007047000080B582B000AF78603960134BEB
:103148001B78002B05D01248FEF7CAFF6FF00B035F
:1031580018E000F07BFC00F085FC03460D4A136084
:1031680002F042FA02F05CFA03460A4A936003F05E
:1031780035F803F03DF80346064A5360034B012235
:103188001A70002318460837BD4680BDAA030020E0
:1031980040EC0008B003002080B58CB002AF0023DB
:1031A80087F82730002387F826300023FB610023A7
:1031B800BB6100237B6100233B610023FB6000238C
:1031C8003B620023BB6000237B60554B1B78002BC0
:1031D80005D15448FEF784FF6FF008039BE007F120
:1031E800140007F1180207F11C0107F110030093FE
:1031F8000346002003F002FB034687F8273097F9BF
:103208002730002B09D097F9273013F1040F04D089
:1032180097F9273013F1050F71D1FB69002B05D001
:103228007A693B691A44BB699A4203D9F82387F83B
:10323800273067E0FA697B6913443B6239693B1DB3
:1032480007F10802386AFFF7C1FDBB68002B09D1F6
:103258003B6A1B7819463448FEF742FFF42387F887
:1032680027304FE0BB68F869796907F10C02984785
:10327800034687F826307B68002B3DD0FB68002B7F
:103288003AD0002387F827303A69FB689A420BD274
:10329800FB6807F1140207F1180107F11C00FFF79A
:1032A800E9FC034687F827303B691A460021386A4B
:1032B8000BF0F2F997F92730002B1DD1FA697B69D9
:1032C80013443B627B68FA6897F92600396A984785
:1032D800F969B8697B69FA680192009303460A465E
:1032E8004FF6FF71012003F031F9034687F82730C4
:1032F80097F92730002B04D197F927300BE000BF4E
:1033080000E000BFFB69002B03D0FB69184603F0FF
:10331800B9FD97F9273018462837BD4680BD00BF4C
:10332800AA03002070EC000898EC000880B584B06F
:1033380000AF0346FB800023FB730023BB600D4BEB
:103348001B78002B05D10C48FEF7CAFE6FF0080366
:103358000CE004F0B7FFB860FB880022B968184693
:1033680002F05CFB0346FB7397F90F3018461037E1
:10337800BD4680BDAA030020C8EC000880B400AF99
:10338800034B1B781846BD465DF8047B704700BFA9
:10339800AB03002080B500AF0B4B1B78002B02D18C
:1033A8000A48FEF79DFE02F03FFF02F0E1FD00F043
:1033B80075FB1022002106480BF06EF9024B002223
:1033C8001A700023184680BDAA030020C0ED00082B
:1033D800B003002080B584B000AF7860786802F050
:1033E800A1FB0346FB7397F90F3018461037BD460B
:1033F80080BD80B584B000AF0346FB800123FB731A
:10340800FA7BFB880021184602F008FB0346BB73D1
:1034180097F90E3018461037BD4680BD80B584B088
:1034280000AF0346FB710123FB6003F0CCFAB860E0
:10343800FA79B968FB68B1FBF3F39A4234BF012308
:103448000023DBB218461037BD4680BD80B584B076
:1034580000AF78600B46FB7000F02AFBF860F96853
:103468000648FEF73DFE064B1B781A46F968786851
:103478000BF044F900BF1037BD4680BDE8ED0008E9
:10348800C803002080B588B000AFF860B9607A60E2
:103498000023FB77FA68BB681344BB61BB697B6197
:1034A8000023FB7402F096FC0346FB74FB7C002BA4
:1034B80008D11A48FEF714FE7B6802221A606FF0E2
:1034C8000A0327E07B695B78002B03D07B695B7874
:1034D800012B01D1012300E00023FB74FB7C002BAE
:1034E8000BD17B695B7819460D48FEF7F9FD7B68BF
:1034F80002221A606FF001030CE00A48FEF7F0FDA3
:103508000120FFF7F5FC0023FB777B6808221A608F
:1035180097F91F3018462037BD4680BD00EE0008D9
:103528004CEE000870EE000880B586B000AF034688
:10353800B9607A60FB7397F90F30002B47D1BB68ED
:103548007B610822002178690BF0A6F87B69FF22CD
:103558001A7005227B695A7000227B699A7003F001
:1035680032FA0346DAB27B69DA7003F025FA0346C9
:103578009AB27B699A807B6901229A717B690122E0
:10358800DA717B695B7819461648FEF7A9FD7B69F5
:103598009B7819461448FEF7A3FD7B69DB7819462A
:1035A8001248FEF79DFD7B699B889BB2194610481F
:1035B800FEF796FD7B699B7919460E48FEF790FD4C
:1035C8007B69DB7919460C48FEF78AFD06E097F916
:1035D8000F307A68B9681846FFF7ECFC00BF183757
:1035E800BD4680BD98EE0008B4EE0008D0EE000895
:1035F800ECEE000808EF000824EF000880B586B05C
:1036080000AFF860B9607A600123FB7502F0E2FB55
:103618000346FB75FB7D002B08D10B48FEF760FDC8
:103628007B6802221A606FF00A0309E00748FEF778
:1036380057FD0020FFF75CFC7B6801221A6000231D
:1036480018461837BD4680BD40EF000890EF0008C7
:1036580080B584B000AFF860B9607A600548FEF7BD
:103668003FFD7B6806221A60002318461037BD46C6
:1036780080BD00BFC0EF000880B586B000AF03462C
:10368800B9607A60FB73BB687B61062200217869A8
:103698000BF002F87B69FF221A70FFF739FC03462A
:1036A8001A467B695A70FFF76DFC03461A467B6918
:1036B8009A70FFF773FC03461A467B699A807B6908
:1036C8005B7819460948FEF70BFD7B699B7819461C
:1036D8000748FEF705FD7B699B889BB2194605489C
:1036E800FEF7FEFC00BF1837BD4680BDCCEF0008D2
:1036F800F0EF000814F0000880B586B000AFF8605D
:10370800B9607A600023FB750B48FEF7E9FC02F00C
:103718004BFB0346FB75FB7D002B03D003F07CF9C4
:1037280002F051FB7B6802221A606FF0040318460E
:103738001837BD4680BD00BF38F0000880B588B096
:1037480000AFF860B9607A600023FB77FA68BB685D
:103758001344BB61BB697B610023FB747B695A68B6
:103768007B69DB781946104600F0AEF90346FB7416
:10377800FB7C002B08D10D48FEF7B2FC7B680222C7
:103788001A606FF00B030CE07B6959687B69DB7882
:103798001A460748FEF7A4FC7B6801221A6097F9CD
:1037A8001F3018462037BD4680BD00BF40F00008D6
:1037B8005CF0000880B58AB000AFF860B9607A6044
:1037C800002387F82730FA68BB6813443B623B6ADA
:1037D800FB610023FB7600F06BF97861FB695B788D
:1037E8001846FFF71BFE0346FB76FB7E002B0BD12A
:1037F800FB695B7819461248FEF772FC7B68022267
:103808001A606FF0010316E07B69002B08D10D48A0
:10381800FEF766FC7B6802221A606FF00B030AE071
:10382800FB695A78084B1A70074B1B785A1C7B683F
:103838001A6097F9273018462837BD4680BD00BF63
:1038480090F00008C0F00008C803002080B588B0D8
:1038580000AF0346B9607A60FB7397F90F30002B0D
:1038680030D100F025F9F861BB68BB610122002165
:10387800B8690AF011FFBB69FF221A70FB69002BB7
:103888001CD0164B1B7801337A689A4216D1BB6854
:1038980001337B610023FB741148FEF721FCFB7C9C
:1038A80019467869FFF7D2FD0C4B1B78184600F0D3
:1038B80029F90A4B00221A7000BF0AE00948FEF7EE
:1038C8000FFC06E097F90F307A68B9681846FFF7D9
:1038D80071FB00BF2037BD4680BD00BFC803002074
:1038E800DCF00008E8F0000880B588B000AFF860A8
:1038F800B9607A600023FB77FA68BB681344BB6140
:10390800BB697B610023FB747B695B781846FFF712
:1039180085FD0346FB74FB7C002B0BD17B695B7830
:1039280019461748FEF7DCFB7B6802221A606FF025
:10393800010320E07B695A687B69DB7819461046E9
:1039480000F0C2F80346FB74FB7C002B08D10D483D
:10395800FEF7C6FB7B6802221A606FF00B030AE0D1
:103968007B695A78084B1A70074B1B785A1C7B687E
:103978001A6097F91F3018462037BD4680BD00BF32
:1039880008F100083CF10008C803002080B588B0A1
:1039980000AF0346B9607A60FB7397F90F30002BCC
:1039A80030D100F085F8F861BB68BB6101220021C5
:1039B800B8690AF071FEBB69FF221A70FB69002B17
:1039C8001CD0164B1B7801337A689A4216D1BB6813
:1039D80001337B610023FB741148FEF781FBFB7CFC
:1039E80019467869FFF732FD0C4B1B78184600F032
:1039F80089F80A4B00221A7000BF0AE00948FEF74E
:103A08006FFB06E097F90F307A68B9681846FFF738
:103A1800D1FA00BF2037BD4680BD00BFC8030020D3
:103A28005CF100086CF1000880B582B000AF034675
:103A3800FB71FB79072204491846FFF743FB03464D
:103A480018460837BD4680BDC80F010880B500AFCD
:103A5800034800F013F800F069F800BF80BD00BF0C
:103A6800313A000880B400AF034B1B681846BD46C6
:103A78005DF8047B704700BFCC03002080B483B09E
:103A880000AF7860044A7B68136000BF0C37BD46FE
:103A98005DF8047B704700BFCC03002080B500AF01
:103AA80000F04BF80020FFF7E9FF00BF80BD0000E1
:103AB80080B400AF034B1B681846BD465DF8047B15
:103AC800704700BFC003002080B483B000AF7860A7
:103AD8000B46FB70FB78002B04D17B68002B01D1CF
:103AE800002306E0064A7B681360054AFB781371D9
:103AF800012318460C37BD465DF8047B704700BFAC
:103B0800C003002080B483B000AF0346FB71064BAE
:103B18001A68FB791344044A136000BF0C37BD468A
:103B28005DF8047B704700BFC003002080B400AF7D
:103B380000BFBD465DF8047B704780B400AF00BF8E
:103B4800BD465DF8047B704780B584B000AF03467E
:103B5800FB800023FB7306F054F803460B4A1360FE
:103B68000B4B1B68002B0CBF01230023DBB2FB733C
:103B7800FB7B002B04D1054B1B68184606F052F856
:103B8800FB7B18461037BD4680BD00BFDC03002014
:103B9800D803002080B582B000AF0346FB80044BF9
:103BA8001B68184606F03EF800BF0837BD4680BDC2
:103BB800DC03002080B582B000AF0346FB8006F02E
:103BC80020F80346074A1360074B1B680133064A6F
:103BD8001360044B1B68184606F024F800BF08372A
:103BE800BD4680BDDC030020D803002080B582B02C
:103BF80000AF0346FB8006F004F80346074A13604B
:103C0800074B1B68013B064A1360044B1B681846A8
:103C180006F008F800BF0837BD4680BDDC03002069
:103C2800D803002080B483B000AF0346FB80104B5C
:103C38001968FA8813465B001344DB000B445B7970
:103C4800022B0AD00A4B1968FA8813465B00134402
:103C5800DB000B445B79032B01D1012300E0002337
:103C6800DBB218460C37BD465DF8047B704700BFD1
:103C7800D003002080B582B000AF0023FB71002381
:103C8800BB800023BB8008E0BB881846FFF7CAFF4B
:103C98000346FB71BB880133BB80094B9B88BA88FC
:103CA8009A4202D2FB79002BEED0FB79002B0CBF95
:103CB80001230023DBB218460837BD4680BD00BF8C
:103CC800D003002080B485B000AF0346FB800B46CC
:103CD8007B7113463B71284B1B68002B42D0264B47
:103CE8009B88FA889A423DD2234B1968FA88134672
:103CF8005B001344DB000B441B68002B32D01E4BC7
:103D08001968FA8813465B001344DB000B441B79DF
:103D18007A799A4226D2184B1968FA8813465B00BA
:103D28001344DB000B4419687A791346DB009B1AAD
:103D38009B000B441B68002B14D00F4B1968FA88A2
:103D480013465B001344DB000B4419687A79134669
:103D5800DB009B1A9B000B441B793A799A4201D2EB
:103D6800012300E00023FB73FB7B18461437BD4694
:103D78005DF8047B704700BFD003002080B485B095
:103D880000AF03463A60FB710B46BB710023FB731F
:103D9800BB79BB81FB79FF2B04D1BB89FF2B01D8F1
:103DA8000123FB73FB7B18461437BD465DF8047B83
:103DB800704780B483B000AF0346FB71FB7923F0F2
:103DC8001003002B0CBF01230023DBB218460C376D
:103DD800BD465DF8047B704780B485B000AF0346EC
:103DE800FB710023FB73FB79002B05D0FB79012BBA
:103DF80002D0FB79022B01D10123FB73FB7B184610
:103E08001437BD465DF8047B704780B485B000AFB9
:103E18000346FB710023FB73FB79002B05D0FB796C
:103E2800012B02D0FB79022B01D10123FB73FB7B11
:103E380018461437BD465DF8047B704780B400AF60
:103E480001231846BD465DF8047B704780B485B0F1
:103E580000AF0346FB80164B1968FA8813465B00CF
:103E68001344DB000B441B7B022B0ED1104B19684B
:103E7800FA8813465B001344DB000B44DA880D4BC9
:103E88001B889A4201D0012300E00023FB73FB7BCF
:103E9800002B04D0FB88002B01D1012300E0002374
:103EA800FB73FB7B18461437BD465DF8047B7047EF
:103EB800D00300204000002080B485B000AF7860B7
:103EC8000B46FB707B681968FA781346DB009B1A6F
:103ED8009B000B44BB60BB689B687A68D28902FB75
:103EE80003F30133FB60FB78002B08D17B681B7A56
:103EF80003F01003002B02D0FB680433FB60FB685F
:103F080018461437BD465DF8047B704780B586B007
:103F180000AF78600023BB7400237B610023FB742F
:103F28000023FB7415E0FB7C19467868FFF7C4FF93
:103F3800F8600023BB600121F86802F005FDB86055
:103F4800BA687B699A4201D9BB687B61FB7C013303
:103F5800FB747B681B79FA7C9A42E4D37B681B79F3
:103F68001A4613465B00134419467B6814331A46F5
:103F7800786903F03FF80346BB7497F91230002BB9
:103F880003D07B684FF0FF325A6197F91230184618
:103F98001837BD4680BD80B582B000AF78607B68B9
:103FA8005B69B3F1FF3F04D07B685B69184603F097
:103FB80033F97B684FF0FF325A6100BF0837BD46BE
:103FC80080BD000080B58AB000AFF860B9607A6043
:103FD800002387F82730FA68BB6813443B623B6AC2
:103FE800FB61FB699A78DB781B0213437B83FB69CF
:103FF8001B797B76FB695B793B760023FB753A7E00
:10400800797E7B8B1846FFF75DFE0346FB75FB7DCB
:10401800002B0BD1798B7A7E3B7E1D48FEF760F82A
:104028007B6802221A606FF001032CE07B8B184634
:10403800FFF7F8FD0346002B0CBF01230023DBB27A
:10404800FB75FB7D002B0AD17B8B19461148FEF7C7
:1040580047F87B6802221A606FF0070313E0798B38
:104068007A7E3B7E0C48FEF73BF80C4A7B8B13802C
:104078000A4A7B7E9370094A3B7ED3707B68012293
:104088001A6097F9273018462837BD4680BD00BF0B
:1040980094F10008D8F1000808F200083C0000205C
:1040A800F0B58FB004AFF860B9607A60002387F884
:1040B8002730FA68BB6813443B623B6AFB61584B84
:1040C8001B887B83564B9B787B76554BDB783B76FE
:1040D80000237B610023FB743A7E797E7B8B184634
:1040E800FFF7F0FD0346FB74FB7C002B0BD1798BAB
:1040F8007A7E3B7E4B48FDF7F3FF7B6802221A600D
:104108006FF0050387E07B8B1846FFF78BFD0346AE
:10411800002B0CBF01230023DBB2FB74FB7C002BBC
:104128000AD17B8B19464048FDF7DAFF7B680222EB
:104138001A606FF007036EE0FB695878FB6999789D
:10414800FB695B681A46FFF719FE0346FB74FB7CA4
:10415800002B1BD1798B7A7E387EFB695B781C46F5
:10416800FB699B781D46FB69DB781E46FB695B682B
:10417800039302960195009403462C48FDF7B0FF7F
:104188007B6802221A606FF0010344E0798B7A7E23
:10419800387EFB695B781C46FB699B781D46FB698A
:1041A800DB781E46FB695B680393029601950094D1
:1041B80003461F48FDF794FF1E4B19687A8B134678
:1041C8005B001344DB000B4419687A7E1346DB005E
:1041D8009B1A9B000B441A683B7EDB0013447B61EF
:1041E800FB695A787B691A70FB699A787B695A70FF
:1041F800FB69DA787B699A70FB695A687B695A604F
:10420800074BDB780133DAB2054BDA707B680122A1
:104218001A6097F9273018462C37BD46F0BD00BF05
:104228003C00002058F20008B4F20008E4F200084C
:104238005CF30008D003002090B58DB002AFF860A1
:10424800B9607A60002387F82730FA68BB6813449E
:104258003B623B6AFB610023BB610023FB75614B3A
:104268001B68002B08D0FB695B889AB25D4B9B8862
:104278009A4201D2012300E00023FB75FB7D002B4D
:104288000CD1FB695B889BB219465748FDF728FF9C
:104298007B6802221A606FF001039FE0514B1A6895
:1042A800FB695B889BB219460B465B000B44DB003D
:1042B8001344BB61FB695B889BB21846FFF7B2FCED
:1042C8000346002B0CBF01230023DBB2FB75FB7DEB
:1042D800002B0CD1FB695B889BB219464348FDF75C
:1042E800FFFE7B6802221A606FF0070376E0FB6925
:1042F8009B889BB27F2B94BF01230023DBB2FB7505
:10430800FB7D002B0CD1FB699B889BB21946384872
:10431800FDF7E6FE7B6802221A606FF001035DE09C
:10432800FB69DB79002B0CBF01230023DBB2FB7593
:10433800FB7D002B08D12F48FDF7D2FE7B680222B7
:104348001A606FF0010349E0FB695B781846FFF7D4
:1043580030FD0346FB75FB7D002B0BD1FB695B78B9
:1043680019462548FDF7BCFE7B6802221A606FF0EB
:10437800090333E0FB695B889BB21946FB695B78EC
:104388001846FB699B889BB21C46FB699B791A46B9
:10439800FB69DB7901930092234602461748FDF733
:1043A8009FFEFB695A78BB691A72FB699B889AB2AF
:1043B800BB69DA80FB699A79BB695A72FB69DA7959
:1043C800BB699A72BB695B7A012B02D8BB6901226F
:1043D8005A727B6801221A6097F9273018462C37E1
:1043E800BD4690BDD0030020CCF30008FCF30008C4
:1043F80030F4000860F400089CF40008D0F40008C9
:1044080090B58FB000AFF860B9607A60002387F884
:104418002630FA68BB6813443B623B6AFB610023A1
:10442800BB61FB695B889BB27B61002387F83730EF
:104438000023FB748A4B1B68002B07D0884B9B8892
:104448001A467B69934201DA012300E0002387F8CA
:10445800373097F83730002B09D179698148FDF753
:104468003FFE7B6802221A606FF00103B2E17E4AC8
:104478007B6913607A4B19687A6913465B001344A9
:10448800DB000B44BB61FB695B781846FFF7A4FCB3
:10449800034687F8373097F83730002B0BD1FB6984
:1044A8005B7819467148FDF71BFE7B6802221A608B
:1044B8006FF009038EE1FFF7C1FC0346002B5AD0C9
:1044C800BB695B79002B56D1BB691B7A03F00203E9
:1044D800002B21D0BB691B68002B09D0604BDB790E
:1044E8001A46BB691B791344802B01DC012300E0C9
:1044F800002387F8373097F83730002B2DD0584BEA
:10450800DA79BB69DA72564BDA79BB691B791344DD
:10451800DAB2534BDA7120E0BB691B68002B09D073
:104528004F4B9B791A46BB691B791344FC2B01DC62
:10453800012300E0002387F8373097F83730002B45
:104548000BD0474B9A79BB69DA72454B9A79BB69AC
:104558001B791344DAB2424B9A7197F83730002B23
:1045680009D179694248FDF7BBFD7B6802221A60D0
:104578006FF008032EE1FB695B78012B04D0FB691F
:104588005B78022B40F0908000233B63012387F87F
:10459800373000233B637CE00023FB620023BB62CF
:1045A8000023FB6213E0BB6919683A6B1346DB0012
:1045B8009B1A9B000B441A68FB6ADB0013445B7868
:1045C8001A46BB6A1344BB62FB6A0133FB62BB69D0
:1045D80019683A6B1346DB009B1A9B000B441B7946
:1045E8001A46FB6A9342DEDB3B6B002B17D1BB6993
:1045F8001B7A03F01003002B11D0BB69DB891A4624
:10460800BB6A02FB03F35C1D02F0D6F903469C4229
:1046180094BF01230023DBB287F8373010E0BB6971
:10462800DB891A46BB6A02FB03F35C1C02F0C4F97F
:1046380003469C4294BF01230023DBB287F837303E
:1046480097F83730002B17D13A6B79690948FDF78D
:1046580047FD7B6802221A606FF00803BAE000BFCA
:10466800D003002034F500083800002064F5000865
:1046780094F50008D0F50008BB6919683A6B134631
:10468800DB009B1A9B000B44BA6A9A603B6B0133B0
:104698003B63BB691B791A463B6B934204DA97F874
:1046A8003730002B7FF478AFBB69DB881846FFF7FB
:1046B8004BFA0346FB74FB7C002B7DD0002387F864
:1046C8002730FB695B78022B53D0022B5FDC002B71
:1046D80002D0012B13D05AE079694048FDF700FD5C
:1046E800BB6901225A71FFF7C5FA0346002B4BD06C
:1046F8000120FEF7FDFB4020FEF72AFC44E0796923
:104708003748FDF7EDFCBB695B69B3F1FF3F22D188
:10471800BB69DA88334B1B889A420CD1314B5868F5
:10472800304B9968BB6914331A4602F021FE0346E0
:1047380087F827300FE07B69002B0CDCBB69DB882E
:10474800002B08D1B869FFF7E1FB034687F827304B
:10475800BB6900221A8297F92730002B16D1BB6952
:1047680003225A710220FEF7C3FB4020FEF7DCFB50
:104778000CE0FB695B889BB219461B48FDF7B0FC4F
:10478800BB6902225A7102E000BF00E000BFBB69AA
:10479800DB881846FFF7FEF97B6802221A6097F952
:1047A8002730002B08D01148FDF79AFC7B680222BD
:1047B8001A606FF002030DE0FB7C002B08D10C4857
:1047C800FDF78EFC7B6802221A606FF00A0301E095
:1047D80097F9263018463C37BD4690BD34F6000898
:1047E80060F60008400000208CF60008B8F60008C3
:1047F80004F7000880B586B000AF0346B9607A6058
:10480800FB7397F90F30002B12D1BB687B617B6972
:10481800FF221A700C4B1A680C4B1B6819460B4682
:104828005B000B44DB001344DA7A7B695A7006E0BC
:1048380097F90F307A68B9681846FEF7BBFB00BFD6
:104848001837BD4680BD00BFD003002038000020C7
:1048580090B58BB000AFF860B9607A600023FB7741
:10486800FA68BB681344BB61BB697B610023FB74B6
:104878000023BB7400237B627B695B781846FFF7D3
:10488800C4FA0346FB74FB7C002B0BD17B695B7875
:104898001946A648FDF724FC7B6802221A606FF0CF
:1048A800090362E1A24B1B68002B05D0A04B9B8833
:1048B800002B01D0012300E00023FB74FB7C002BBC
:1048C80008D19C48FDF70CFC7B6802221A606FF047
:1048D80001034AE101F068FA0346BB74BB7C002B74
:1048E80000F03581002387F8233000233B847B695F
:1048F8005B78022B00F0D580022B00F30681002B99
:1049080002D0012B2CD000E100237B621BE0884BF6
:1049180019687A6A13465B001344DB000B445B7921
:10492800002B0DD0796A8448FDF7DAFB804B1968B3
:104938007A6A13465B001344DB000B4401225A7168
:104948007B6A01337B627A4B9B881A467B6A934267
:10495800DDDB0120FEF7CCFA4020FEF7F9FAD4E0BF
:1049680000237B6263E0724B19687A6A13465B0026
:104978001344DB000B445B79022B55D16C4B19684F
:104988007A6A13465B001344DB000B445B69B3F19E
:10499800FF3F49D1664B19687A6A13465B00134496
:1049A800DB000B44DA88654B1B889A4214D1634BB1
:1049B8005868624B9C685E4B19687A6A13465B00BC
:1049C8001344DB000B4414331A46214602F0D0FC92
:1049D800034687F8233027E07B6A002B24DC544BFE
:1049E80019687A6A13465B001344DB000B44DB88C2
:1049F800002B19D14E4B19687A6A13465B00134491
:104A0800DB000B441846FFF781FA034687F823308A
:104A1800474B19687A6A13465B001344DB000B4462
:104A280000221A827B6A3B847B6A01337B62404B9B
:104A38009B881A467B6A934203DA97F92330002B46
:104A480091D097F92330002B5CD100237B6221E0C1
:104A5800374B19687A6A13465B001344DB000B4432
:104A68005B79022B13D1796A3548FDF739FB304B56
:104A780019687A6A13465B001344DB000B4403226F
:104A88005A710220FEF734FA4020FEF74DFA7B6A8D
:104A980001337B62264B9B881A467B6A9342D7DB9D
:104AA80030E000237B621BE0214B19687A6A1346C9
:104AB8005B001344DB000B445B79022B0DD1796A50
:104AC8001D48FDF70DFB1A4B19687A6A13465B00FF
:104AD8001344DB000B4401225A717B6A01337B6269
:104AE800134B9B881A467B6A9342DDDBFFF7C2F8BB
:104AF8000346002B08D00120FEF7FAF94020FEF704
:104B080027FA01E000BF00E000BF01F05CF997F967
:104B18002330002B18D03B8C19460A48FDF7E0FAE1
:104B28007B6802221A606FF002031EE04CF700084F
:104B3800D00300207CF70008A8F7000840000020F8
:104B4800D0F70008F8F700087B6801221A60BB7CE0
:104B5800002B08D10748FDF7C3FA7B6802221A60C8
:104B68006FF00A0301E097F91F3018462C37BD464D
:104B780090BD00BF44F8000880B584B000AFF8606D
:104B8800B9607A600548FDF7ABFA7B6808221A60BD
:104B9800002318461037BD4680BD00BF88F80008BE
:104BA80080B586B000AF0346B9607A60FB73BB6816
:104BB8007B6108220021786909F06EFD7B69FF227C
:104BC8001A707B6911225A707B694FF0FF329A7014
:104BD8004FF0FF32DA707B69002262F07F021A71AF
:104BE80000225A717B6900229A717B690022DA716E
:104BF8007B695B7819461048FDF772FA7B695B8818
:104C08009BB219460D48FDF76BFA7B699B889BB2EE
:104C180019460B48FDF764FA7B699B7919460948E0
:104C2800FDF75EFA7B69DB7919460748FDF758FA04
:104C380000BF1837BD4680BDA0F80008BCF80008C2
:104C4800D8F80008F4F8000810F9000880B584B016
:104C580000AFF860B9607A600548FDF741FA7B68F3
:104C680008221A60002318461037BD4680BD00BFD1
:104C78002CF9000880B586B000AF0346B9607A60A9
:104C8800FB73BB687B6108220021786909F004FD89
:104C98007B69FF221A707B6901225A707B69FF22A7
:104CA8009A707B690122DA707B69FF221A717B692D
:104CB80034225A717B69002242F001029A71002263
:104CC800DA717B695B7819461248FDF709FA7B6946
:104CD8009B7819461048FDF703FA7B69DB7819467B
:104CE8000E48FDF7FDF97B691B7919460C48FDF75D
:104CF800F7F97B695B7919460A48FDF7F1F97B6991
:104D0800DB889BB219460848FDF7EAF900BF183757
:104D1800BD4680BD48F9000870F9000898F90008F8
:104D2800C0F90008E8F9000814FA000880B586B050
:104D380000AFF860B9607A600023FB750023BB758B
:104D48000F48FDF7CDF901F045F80346BB75BB7D6B
:104D5800002B08D10B48FDF7C3F97B6802221A60C3
:104D68006FF00A0307E00120FEF7C2F87B68012212
:104D78001A6097F9173018461837BD4680BD00BF2E
:104D88003CFA00086CFA000880B58CB000AFF860F7
:104D9800B9607A60002387F82B30FA68BB6813443F
:104DA8007B627B6A3B623B6A5B889BB2FB61002348
:104DB800BB610023FB750023FB62514B1B68002B72
:104DC8000CBF01230023DBB2FB75FB7D002B08D150
:104DD8004C48FDF785F97B6802221A606FF00303DF
:104DE8008AE0FB69002B05DDFB69B3F5803F01DA3A
:104DF800012300E00023FB75FB7D002B09D1F96935
:104E08004148FDF76DF97B6802221A606FF00103D3
:104E180072E0FA6913465B001344DB001A46F9692D
:104E28003A48FDF75DF9FA6913465B001344DB0065
:104E3800184601F0B3FFB861BB69002B09D1F969C5
:104E48003348FDF74DF97B6802221A606FF00203C0
:104E580052E0FA6913465B001344DB001A4600214E
:104E6800B86909F019FC264ABB691360FB699AB254
:104E7800234B9A800023FB6235E0FA6A13465B00F5
:104E88001344DB001A46BB6913444FF0FF325A61E2
:104E9800FA6A13465B001344DB001A46BB691344E5
:104EA80000221A73FA6A13465B001344DB001A46A1
:104EB800BB69134401225A73FA6A13465B00134410
:104EC800DB001A46BB6913440122DA81FA6A1346E9
:104ED8005B001344DB001A46BB69134400221A82A4
:104EE800FB6A0133FB62FA6AFB699A42C5DB7B689D
:104EF80001221A6097F92B3018463037BD4680BD1D
:104F0800D0030020A8FA0008ECFA00081CFB0008EF
:104F180048FB000890B589B000AFF860B9607A60C6
:104F28000023FB77FA68BB681344BB61BB697B61EC
:104F38007B699A78DB781B0213437B827B691B7938
:104F48007B7400233B745C4B1B68002B14BF01234C
:104F58000023DBB23B743B7C002B08D15748FDF79C
:104F6800BFF87B6802221A606FF003039FE0524B80
:104F78009B887A8A9A4234BF01230023DBB23B74B0
:104F88003B7C002B0AD17B8A19464D48FDF7A8F8CF
:104F98007B6802221A606FF0010388E07B7C002B9B
:104FA80004D07B7CFC2B01D8012300E000233B7458
:104FB8003B7C002B0BD17B7C7A8A19464148FDF754
:104FC8008FF87B6802221A606FF001036FE03A4B9A
:104FD80019687A8A13465B001344DB000B441B688C
:104FE800002B0CBF01230023DBB23B743B7C002B5E
:104FF80008D13548FDF774F87B6802221A606FF013
:10500800030354E0797C788A7A7C1346DB009B1A88
:105018009B0002462D48FDF763F87A7C1346DB00B7
:105028009B1A9B001846244B19687A8A13465B0022
:105038001344DB00CC1801F0B1FE034623601E4B7D
:1050480019687A8A13465B001344DB000B441B681B
:10505800002B0BD17B7C7A8A19461D48FDF740F856
:105068007B6802221A606FF0020320E0124B196875
:105078007A8A13465B001344DB000B4418687A7C79
:105088001346DB009B1A9B001A46002109F004FB1B
:10509800094B19687A8A13465B001344DB000B44FA
:1050A8007A7C1A717B6801221A6097F91F301846BA
:1050B8002437BD4690BD00BFD003002080FB000808
:1050C800C0FB0008ECFB000828FC000864FC000892
:1050D8009CFC000890B58DB002AFF860B9607A60AA
:1050E800002387F82730FA68BB6813443B623B6AA1
:1050F800FB61FB699A78DB781B0213437B83FB69AE
:105108001B797B76FB695B793B760023FB75844BC7
:105118001B68002B14BF01230023DBB2FB75FB7D4A
:10512800002B08D17F48FCF7DBFF7B6802221A605E
:105138006FF00303F0E07A4B9B887A8B9A4234BF76
:1051480001230023DBB2FB75FB7D002B0AD17B8B8F
:1051580019467548FCF7C4FF7B6802221A606FF095
:105168000103D9E06E4B19687A8B13465B00134430
:10517800DB000B441B68002B14BF01230023DBB2A8
:10518800FB75FB7D002B08D16848FCF7A9FF7B68FD
:1051980002221A606FF00303BEE0614B19687A8B34
:1051A80013465B001344DB000B441B797A7E9A425A
:1051B80034BF01230023DBB2FB75FB7D002B0AD132
:1051C8007B7E19465A48FCF78BFF7B6802221A60DF
:1051D8006FF00103A0E0524B19687A8B13465B000D
:1051E8001344DB000B4419687A7E1346DB009B1AD4
:1051F8009B000B441B68002B0CBF01230023DBB270
:10520800FB75FB7D002B08D14A48FCF769FF7B68DA
:1052180002221A606FF003037EE03B7E002B14BF6E
:1052280001230023DBB2FB75FB7D002B0BD1397EFC
:105238007A7E7B8B4048FCF753FF7B6802221A601A
:105248006FF0010368E0397E7A8B787E3B7EDB0065
:10525800009303463948FCF743FF3B7ED800304BA8
:1052680019687A8B13465B001344DB000B441968FA
:105278007A7E1346DB009B1A9B00CC1801F08EFD4A
:1052880003462360264B19687A8B13465B00134448
:10529800DB000B4419687A7E1346DB009B1A9B00DF
:1052A8000B441B68002B0BD1397E7A8B7B7E2448FC
:1052B800FCF716FF7B6802221A606FF002032BE0EE
:1052C800174B19687A8B13465B001344DB000B44B9
:1052D80019687A7E1346DB009B1A9B000B441868FA
:1052E8003B7EDB001A46002109F0D6F90C4B196801
:1052F8007A8B13465B001344DB000B4419687A7EF3
:105308001346DB009B1A9B000B443A7E1A717B689C
:1053180001221A6097F9273018462C37BD4690BDF0
:10532800D0030020DCFC000820FD000854FD000824
:1053380094FD0008C0FD00080CFE00085CFE000893
:10534800A8FE000880B58AB000AFF860B9607A603E
:10535800002387F82730FA68BB6813443B623B6A2E
:10536800FB61FB699A78DB781B0213437B83FB693B
:105378001B797B76FB695B793B76FB699A79DB79EC
:105388001B021343FB8201237B756C4B1B68002BAC
:1053980014BF01230023DBB27B757B7D002B08D172
:1053A8006748FCF79DFE7B6802221A606FF00303D2
:1053B800C0E0624B9B887A8B9A4234BF012300235A
:1053C800DBB27B757B7D002B0AD17B8B19465D4850
:1053D800FCF786FE7B6802221A606FF00103A9E0E1
:1053E8007B8B002B0CBF01230023DBB27B757B7DFD
:1053F800002B0AD17B8B19465348FCF771FE7B685A
:1054080002221A606FF0090394E07B7E002B02D021
:105418007B7E022B01D1012300E000237B757B7D7D
:10542800002B0AD17B7E19464848FCF759FE7B6859
:1054380002221A606FF009037CE03B7E012B0CBF4F
:1054480001230023DBB27B757B7D002B0AD13B7ED9
:1054580019463F48FCF744FE7B6802221A606FF049
:10546800090367E07B7E002B02D1FB8A012B05D064
:105478007B7E002B04D0FB8A012B01D9012300E09D
:1054880000237B757B7D002B0AD1FB8A19463148A6
:10549800FCF726FE7B6802221A606FF0090349E0D8
:1054A8007B8B1846FEF7BEFB0346002B0CBF01237F
:1054B8000023DBB27B757B7D002B08D12648FCF7E7
:1054C8000FFE7B6802221A606FF0070332E0797ED4
:1054D8003A7EFB8A2148FCF703FE184B19687A8B41
:1054E80013465B001344DB000B447A7E1A73134B9C
:1054F80019687A8B13465B001344DB000B443A7E31
:105508005A730E4B19687A8B13465B001344DB0001
:105518000B44FA8ADA81094B19687A8B13465B00C7
:105528001344DB000B4400221A827B6801221A60B4
:1055380097F9273018462837BD4680BDD00300208C
:10554800F8FE000840FF000878FF0008DCFF0008AC
:10555800180001085C000108A0000108FC0001080F
:1055680080B588B000AFF860B9607A600023FB7737
:10557800FA68BB681344BB61BB695B78012B0CBF3D
:1055880001230023DBB2FB75FB7D002B0BD1BB692C
:105598005B7819460A48FCF7A3FD7B6802221A606B
:1055A8004FF0FF3308E07A68B968F868FFF7CAFE79
:1055B8000346FB7797F91F3018462037BD4680BD54
:1055C8004C01010880B582B000AF0346FB71FB793E
:1055D8000C2204491846FDF775FD0346184608379E
:1055E800BD4680BD1C10010880B500AF084B0022E5
:1055F8001A60084B00221A6008220021064809F0A8
:105608004BF8064800F018F800F0C2FC00BF80BD57
:10561800DC030020D8030020D0030020CD5500086B
:1056280080B400AF034B1B681846BD465DF8047B89
:10563800704700BFE003002080B483B000AF7860FB
:10564800044A7B68136000BF0C37BD465DF8047BD5
:10565800704700BFE003002080B584B000AF034668
:10566800FB800023FB600023BB60224B1B68002BE0
:1056780004D0204B9B88FA889A4205D31E48FCF731
:105688002FFD4FF0FF3331E01A4B1968FA881346A3
:105698005B001344DB000B44BB60FB881846FEF735
:1056A800D5FB0346002B03D0BB681B8A002B01D116
:1056B80000231BE00023FB600EE0BB681968FA6852
:1056C8001346DB009B1A9B000B44DB68184601F06D
:1056D800D9FBFB680133FB60BB681B791A46FB6882
:1056E8009342EADBBB6800221A820023184610376F
:1056F800BD4680BDD00300208401010880B487B076
:1057080000AFF8600B467A60FB72FB681968FA7A9A
:105718001346DB009B1A9B000B443B613B695B69AA
:105728007B613B6900229A61FB68DA7AFB7A134451
:10573800DAB27B691A707B6901337B61FB7A002BD3
:1057480011D1FB681B7A03F01003002B0BD07A6889
:105758007B691A603B699B6904337A6913447B61EE
:105768003B6900229A613B697A695A6100BF1C371C
:10577800BD465DF8047B704780B588B000AF78609F
:105788000023FB777B685B69BB610023FB7735E00F
:105798007B681A68FB7FDB0013447B617B695B686D
:1057A8003B617B691B78FF2B12D03B69FB60FB6870
:1057B8001B687A691278114601228A401340002B2F
:1057C80014BF01230023DBB21A46BB691A7006E036
:1057D8007B695B781A463969B86908F08FFF7B697D
:1057E8005B781A467B689B691344BA691344BB61AA
:1057F8007B6800229A61FB7F0133FB777B681B790A
:10580800FA7F9A42C4D37B68BA695A6100BF2037CD
:10581800BD4680BD80B58EB002AF0346B9607A60E0
:10582800FB81002387F82F30002387F82E300023D0
:10583800BB62002387F82D30002387F82730002328
:1058480087F82630724B1B68002B04D0704B9B885E
:10585800FA899A4205D36F48FCF742FC4FF0FF33B0
:10586800D1E06B4B1968FA8913465B001344DB00DF
:105878000B44BB62FB891846FEF7E8FA034687F833
:10588800273097F82730002B06D0BB6A1B8A0133D4
:10589800BA6AD289934201D1012300E0002387F834
:1058A8002630002387F82D3093E0BB6A196897F8F3
:1058B8002D201346DB009B1A9B000B443B6201F032
:1058C80033F8F8610023BB6197F82730002B03D029
:1058D800BB6A1B8A002B01D1012300E00023FB7562
:1058E800FB7D002B3CD097F82D301946B86AFEF79F
:1058F800E3FA02463B6A1A613B6A1B6901211846B2
:1059080001F022F8B861BB6A5B69B3F1FF3F09D0C7
:10591800BB6A5B69B969184601F0BAFD02463B6A81
:10592800DA6005E0B86901F039FA02463B6ADA60E4
:105938003B6ADB68002B0DD03B6ADA68FB691A44C6
:105948003B6A5A6197F82D30BA681946B86AFFF76A
:10595800D5FE05E0012387F82E30F62387F82F308F
:1059680097F82E30002B2FD13B6ADB68002B2BD009
:10597800BB6ADA88284B1B889A4202D0386AFFF73C
:10598800FBFE97F82630002B1ED03B6A1B690121CD
:10599800184600F0D9FFB8613B6ADA683B6A1B69B0
:1059A800F9890193FB690093BB69786800F0CEFD23
:1059B800034687F82F3097F92F30002B04D03B6A25
:1059C800DB68184601F05EFA97F82D30013387F846
:1059D8002D30BB6A1B7997F82D209A4204D297F88C
:1059E8002E30002B3FF461AFBB6A1B8A0133BA6AC1
:1059F800D28993FBF2F101FB02F29B1A9AB2BB6ABD
:105A08001A8297F92F3018463037BD4680BD00BF3F
:105A1800D0030020840101084000002080B586B032
:105A280000AF03463960FB8013467B710023FB758A
:105A3800FB881846FEF7BEF8394B1B68002B64D06C
:105A4800374B9B88002B60D00023BB82344B1B68EC
:105A58003B610023BB824FE0BA8A13465B001344C4
:105A6800DB001A463B6913441B7A03F00203002B40
:105A78003FD1BA8A13465B001344DB001A463B69E0
:105A880013445B79032B34D1BA8A13465B00134461
:105A9800DB001A463B691344DB88FA889A4228D10E
:105AA800BB8A1946002000F037FD0346FB73FB7BD9
:105AB800002B01D0002301E04FF0FF33BB607B795E
:105AC800002B06D0BB8A1846FFF7C6FD0346FB75B8
